:020000040800F2
:10000000587E002081020008954F0008CD3F00086F
:10001000914F00089F090008596700080000000080
:10002000000000000000000000000000C101000806
:10003000CD140008000000001D020008A95A0008A5
:100040009B0200089B0200089B0200089B0200081C
:100050009B0200089B0200089B0200089B0200080C
:100060009B0200089B0200089B0200089B020008FC
:10007000651000089B0200089B0200089B02000814
:100080009B020008751000089B0200089B020008F4
:10009000F90900089B0200089B0200089B02000867
:1000A0009B0200089B0200089B0200089B020008BC
:1000B0009B020008AD5B00089B0200089B02000841
:1000C0009B0200089B0200089B0200089B0200089C
:1000D0009B020008296500089B0200083D65000896
:1000E0009B0200089B0200089B0200089B0200087C
:1000F0009B0200089B0200089B0200089B0200086C
:100100009B0200089B0200089B0200089B0200085B
:100110009B0200089B020008E15B0008F15B0008FD
:100120009B02000885100008951000089B0200083B
:100130009B0200089B0200089B0200089B0200082B
:10014000510B00089B0200089B0200089B0200085C
:100150009B020008A51000089B02000861650008CA
:100160009B0200089B0200089B0200089B020008FB
:100170009B0200089B0200089B0200080000000090
:100180009B0200089B0200089B020008115F000808
:100190009B0200089B0200089B0200089B020008CB
:1001A00000000000000000009B020008DFF80CD0F7
:1001B00000F0B8FB004800479D710008587E002001
:1001C0002C4B19680868B0E8F04F80F30988BFF33A
:1001D0006F8F4FF0000080F311887047000000001F
:1001E00008480068006880F308884FF0000080F33A
:1001F000148862B661B6BFF34F8FBFF36F8F00DF15
:1002000000BF00BF08ED00E0DFF80C00016841F41A
:1002100070010160704700BF88ED00E0EFF30980D6
:10022000BFF36F8F134B1A681EF0100F08BF20ED3D
:10023000108A20E9F04F106009B44FF0500080F3AD
:100240001188BFF34F8FBFF36F8F08F083F84FF023
:10025000000080F3118809BC19680868B0E8F04F05
:100260001EF0100F08BFB0EC108A80F30988BFF3AE
:100270006F8F704780010020EFF30580704700000A
:100280000648804706480047FEE7FEE7FEE7FEE730
:10029000FEE7FEE7FEE7FEE7FEE7FEE7915B00080C
:1002A000AD0100082DE9F05F0546002092469B460F
:1002B00088460646814640241BE02846414647467C
:1002C000224600F078FA53465A46C01A914110D39C
:1002D00011461846224600F05FFA2D1A67EB010816
:1002E0004F4622460120002100F056FA17EB000984
:1002F0004E41201EA4F10104DFDC484631462A4667
:100300004346BDE8F09F40EA01039B0703D009E0A4
:1003100008C9121F08C0042AFAD203E011F8013BF1
:1003200000F8013B521EF9D27047D2B201E000F84A
:10033000012B491EFBD270470022F6E710B5134689
:100340000A4604461946FFF7F0FF204610BD2DE986
:10035000FE4F804681EA0300C00F0C46009021F05A
:10036000004123F00045B8EB0200A94105D2404608
:10037000214690461C460B46024623F0004010439F
:1003800047D0270DC7F30A00C3F30A510290401A61
:10039000019040286BDAC3F3130040F4801B0098EF
:1003A000924620B10023D2EB030A63EB0B0B0198BA
:1003B0005946C0F14002504600F0EEF906460D469F
:1003C00050465946019A00F006FA10EB08006141C8
:1003D000002487EA115284EAE7731A4340D0009A56
:1003E00062B3019A012A4FEA075215DC001B61EB48
:1003F00002014FF0004202EA0752CDE90042001C20
:1004000041F5801132462B4600F03DFA03B0BDE8BD
:10041000F08F40462146F9E7001B61EB0201001C0A
:1004200041F5801300185B412018A2F5001747EB37
:10043000030140EAD570B6196D4111E06D084FEA2D
:10044000360645EAC0754FEA0752001B61EB020110
:10045000001C41F5801149084FEA30000019514154
:1004600032462B4603B0BDE8F04F00F0FDB90098CE
:10047000012240000023D0EB020263EBE0730098FE
:1004800021464FEAE074B8EB000061EB0401E9E7B4
:1004900083F000435BE781F0004158E72DE9FE4F10
:1004A00081EA030404F0004421F0004100944FF07D
:1004B000000B23F0004350EA01045ED052EA03042B
:1004C0005BD0C3F30A54C1F30A552C44A4F2F334AD
:1004D0000194A0FB0254C1F3130141F48011C3F352
:1004E000130343F4801301FB024400FB034E840A10
:1004F000970A44EA815447EA8357A4FB07680295A8
:100500008D0A05FB07854FEA932C04FB0C54270545
:10051000029D4FEA065847EA1637B5EB08056EEB21
:10052000070C870E920E47EA811742EA8312A7FB57
:100530000201B6EB0B0164EB00042B0D43EA0C3314
:100540005E1844EB1C50DA465146E7FB0201C5F346
:1005500013044FEA0B3343EA14534FEA0432019C6D
:1005600043EA0603A4F10C040294009CCDE900B414
:1005700000F089F903B0BDE8F08F00200146F9E7EB
:100580002DE9F04D81EA030404F0004B21F0004511
:1005900014464FF0000A23F0004150EA050220D033
:1005A00054EA01021DD0C5F30A570246C5F31303EE
:1005B000C1F31300C1F30A5640F4801543F48013CD
:1005C000A7EB0608101BD64608F2FD3873EB0500B2
:1005D00002D308F1010801E092185B41B8F1000F65
:1005E00003DA00200146BDE8F08D00204FF48011B1
:1005F000064684460EE0171B73EB050705D3121B56
:1006000063EB050306434CEA010C49084FEA30004E
:1006100092185B4150EA0107EDD152EA030012D073
:1006200082EA040083EA0501084305D0101BAB41B0
:1006300006D20122002306E000224FF0004302E030
:100640006FF0010253101AEB06004CEB085110EB4F
:100650000A0041EB0B01BDE8F04D00F005B90EB505
:10066000C10F80EAE0700844CA07002140F233431A
:100670008DE80E000A460B4600F005F903B000BDF8
:100680000EB540F2334102910021CDE900110A4636
:100690000B4600F0F8F803B000BD70B5C1F30A5284
:1006A00001F000450024C1F3130140F2FF3341F48F
:1006B00080119A4201DA002070BD40F233439A4221
:1006C000A2F2334203DC524200F075F800E09040A1
:1006D0002C43F1D0404270BDC1F30A5210B5C1F3B2
:1006E000130140F2FF3341F480119A4201DA0020F5
:1006F00010BD40F233439A42A2F2334203DC52422D
:1007000000F059F810BD904010BD00F0004230F0EC
:1007100000400AD0C10D01F56071C0F3160042EA35
:100720000151C2084007114370470020014670473D
:1007300030B5041E71F1000404DB4FF00044404268
:1007400064EB0101141E73F1000405DB1C464FF03D
:100750000043524263EB04038B4208BF824230BD28
:1007600001F0004330B421F0004150EA010206D00C
:100770000A0DA2F56072C1F31301002A02DC30BC3D
:1007800000207047440F44EAC104C100E01830BCA7
:1007900000EBC25000F031B8202A04DB203A00FA06
:1007A00002F1002070479140C2F1200320FA03F3C8
:1007B000194390407047202A04DB203A21FA02F0C6
:1007C0000021704721FA02F3D040C2F1200291408B
:1007D000084319467047202A06DBCB17203A41FA16
:1007E00002F043EAE07306E041FA02F3D040C2F1BE
:1007F000200291400843194670470029A8BF70475E
:10080000401C490008BF20F00100704710B4B0FA46
:1008100080FC00FA0CF050EA010404BF10BC7047E1
:1008200049B1CCF1200421FA04F411FA0CF118BFFB
:10083000012121430843A3EB0C01CB1D4FEA0061CA
:100840004FEA102042BF002010BC704700EBC3509D
:1008500010440029A4BF10BC7047401C490008BFC9
:1008600020F0010010BC704710B5141E73F1000495
:1008700008DA401C41F1000192185B411A4301D192
:1008800020F0010010BD2DE9F04D92469B4611B1BC
:10089000B1FA81F202E0B0FA80F220329046FFF71E
:1008A0007BFF04460F4640EA0A0041EA0B0153462B
:1008B0005A46084313D0114653EA010019D0C8F133
:1008C00040025046FFF777FF05460E465046594610
:1008D0004246FFF761FF084305D0012004E02046AF
:1008E0003946BDE8F08D0020054346EAE0762C430A
:1008F00037430A986305E40AA0EB08000022FD0ACA
:1009000044EA47540A3002D500200146E9E70105D0
:1009100010196941DDE9084500196941BDE8F04D4C
:10092000A2E70000064C074D06E0E06840F0010336
:1009300094E8070098471034AC42F6D3FFF73AFC2E
:100940003C9300085C93000870B58C1810F8015BAC
:1009500015F0070301D110F8013B2A1106D110F858
:10096000012B03E010F8016B01F8016B5B1EF9D15C
:100970002B0705D40023521E0DD401F8013BFAE7E2
:1009800010F8013BCB1A921C03E013F8015B01F84D
:10099000015B521EF9D5A142D8D3002070BD00BF23
:1009A000FEE7000010B500F00FF8064801F081FCEA
:1009B00004480068406940F0020002490968486143
:1009C00010BD00009807002000B58BB000200A90F1
:1009D000069007900120089000200190029003905B
:1009E000049005900120099001A9024801F02AF81D
:1009F0000BB000BD9807002010B504480068401CEB
:100A000002490860024801F06DF910BD4400002061
:100A1000980700208EB034480068401C32490860B6
:100A200000BF31480068401C2F4908604FF0FF327A
:100A300005A92E48006807F07FFE0446012CF0D17E
:100A400040F205210598884208D1142209A9684678
:100A5000FFF759FC05A80FC800F03AFE40F2062146
:100A60000598884208D1142209A96846FFF74BFC73
:100A700005A80FC800F054FD0598B0F5017F08D116
:100A8000142209A96846FFF73EFC05A80FC803F029
:100A900009FF40F201210598884208D1142209A9D2
:100AA0006846FFF730FC05A80FC803F091FF40F23D
:100AB00002210598884208D1142209A96846FFF747
:100AC00022FC05A80FC803F083FF40F2032105981C
:100AD0008842A6D1142209A96846FFF714FC05A88C
:100AE0000FC803F03DFE9CE75000002020010020CD
:100AF00010B500F011F8074801F0DBFB08B100BFAA
:100B0000FEE704480068406940F0020001490968B6
:100B1000486110BDC007002000B58BB000200A90CE
:100B20000690079001200890002001900290039009
:100B3000049005900120099001A9044800F082FF6B
:100B400008B100BFFEE70BB000BD0000C0070020E9
:100B500010B504480068401C02490860024801F0D2
:100B6000C1F810BD54000020C00700202DE9F84353
:100B700081460E4615461F4600201549C8600846A6
:100B80008660806810B90846056005E010488068F6
:100B9000042801D10E48456008200D490861002055
:100BA00008750846D0F81080002405E0395D084833
:100BB00018300155601CC4B24445F7D36B46044A53
:100BC00018320349484600F091FEBDE8F883000062
:100BD0007849002010B52DED0C8B3F48007A032892
:100BE0002BD13E480078012827D13D4800780128C4
:100BF00023D13948B0F90A0010F5C87F05DC01207F
:100C0000384908700020384908703348B0F90A00A4
:100C1000B0F5C87F05DB0120334908700020314959
:100C2000087031480078012801D100F075F82D488E
:100C30000078012801D104F049FD2748007A0128F5
:100C40002ED12A480068FFF70AFD41EC190B224912
:100C5000B1F90600FFF703FD41EC1D0B9FED240BDE
:100C600053EC102BFFF71AFC41EC1C0B9FED220BF1
:100C700053EC102BFFF784FC41EC1B0B9FED200B7A
:100C800053EC102BFFF70AFC41EC1A0B53EC192B19
:100C9000FFF704FC41EC180BFFF7FFFC1A49086052
:100CA0001A48B0F9900100EE100AB8EEC00AF0EE52
:100CB000400A154890ED000AB8EEC00A144804F046
:100CC0001BFC134890ED110ABDEEC00A114880EDDF
:100CD000000ABDEC0C8B10BDE00100203A000020A2
:100CE0003900002004000020050000208C000020B6
:100CF000000000000000F03F0000000000A0844061
:100D0000000000000000F0BF7C000020284A002006
:100D10004C5B00209800002010B500206949087045
:100D200069480078002848D16848D0ED820A6848B0
:100D3000006849F64041084400EE100AB8EEC00AC7
:100D4000F4EEC00AF1EE10FA37D2002061490860D3
:100D500061480068401C604908605C48B0F9900137
:100D6000002802DD01205D4908605C48006890B9F8
:100D700059480068042808DD0120594908709FED92
:100D8000590A594880ED000A0BE0B7EE080A5648A8
:100D900080ED000A05E0002051490870534854498D
:100DA00008604D480068B0F5FA6F6BDD00204C49D3
:100DB00008704E484E49086064E04E48007880BB99
:100DC0004248D0ED820A4C480068A0F51C404038EB
:100DD00000EE100AB8EEC00AF4EEC00AF1EE10FA06
:100DE0003ADD00203B4908603B480068401C3A4916
:100DF00008603648B0F99001002802DA012037492E
:100E000008603648006898B933480068042809DD4E
:100E10000120334908709FED330A334880ED000A02
:100E20000DE019E0B7EE080A2F4880ED000A06E051
:100E300000202B4908702D4840422D490860264863
:100E40000068B0F5FA6F1DDD0020254908702748BD
:100E500040422749086015E09FED280A224880EDAE
:100E6000000A1C480068401C1A49086008460068CF
:100E7000C82802DD00201A490870002017490860C0
:100E8000154908601148B0F990011D4908600F48E4
:100E900090ED820AF0EE400A154890ED000AB8EE97
:100EA000C00A184804F028FB164890ED110A0E48B5
:100EB000D0ED000A20EE200ABDEEC00A124880EDF7
:100EC000000A10BD18010020B8000020284A0020A8
:100ED000C000002014010020300000202800002065
:100EE000110100203333333F34000020E00F97001E
:100EF00080000020B9000020BC000020D7A3703F74
:100F00002C000020EC5A00207C0000208EB000BF96
:100F10004FF0FF3205A91A48006807F00DFC04469F
:100F2000012C29D140F201110598884208D11422E0
:100F300009A96846FFF7E7F905A80FC800F034F8DB
:100F400040F295110598884208D1142209A96846F3
:100F5000FFF7D9F905A80FC800F034F840F2651181
:100F60000598884208D1142209A96846FFF7CBF9F1
:100F700005A80FC800F04EF805F03EFBC8E70000DA
:100F80002401002010B50246002004E012F8013BC5
:100F90004340044CE05C0B1EA1F10104A1B2F5D169
:100FA00010BD0000EE9100080FB4002004E007A976
:100FB000095C034A1154401C0828F8DB04B0704750
:100FC000080300200FB410B540F295110298884232
:100FD00002D010BC5DF814FB002004E009A9095CF4
:100FE000094A1154401C0828F8DB0849A1F10800FF
:100FF00000F05BFC06484068401C05494860002042
:10100000087200BFE5E7000010030020F05D00203B
:10101000185E00200FB410B540F2651102988842A6
:1010200002D010BC5DF814FB002004E009A9095CA3
:10103000094A1154401C0828F8DB0849A1F10800AE
:1010400000F033FC06484068401C05494860002019
:10105000087200BFE5E7000018030020FC5D0020D7
:10106000245E002010B5024801F06EF910BD0000AA
:10107000780A002010B5024801F066F910BD0000A2
:10108000B809002010B5024801F05EF910BD00005B
:10109000D80A002010B5024801F056F910BD000032
:1010A000180A002010B5024801F04EF910BD0000EA
:1010B000380B00200146087810381823B0FBF3F2F3
:1010C0000848805CC865032A05D908686FF30900E1
:1010D000001D886503E008686FF309008865886D66
:1010E00070470000CC8E0008014600208A6A8B6998
:1010F000CBB932B1012A0DD0022A03D0032A10D174
:101100000EE000BFCB6A03F08073B3F1807F00D1A3
:10111000012007E0CB6AB3F1C07F00D1012001E0DC
:1011200000E000BF34E08B69B3F5005F1AD132B143
:10113000012A07D0022A03D0032A11D10AE000BFF6
:1011400001200EE0CB6A03F08073B3F1807F00D101
:10115000012006E0CB6AB3F1C07F00D1012000E09E
:1011600000BF15E032B1012A05D0022A04D0032ABB
:101170000CD103E000BF00BF012008E0CB6A03F000
:101180008073B3F1807F00D1012000E000BF00BF79
:10119000704730B50468246824F4802405682C6006
:1011A000046863608468402C04D10468A260046809
:1011B000E16003E00468A1600468E26030BD000003
:1011C00000B970470178427841EA0221C1F30A016F
:1011D000614A11804178C910827841EA4211C1F315
:1011E0000A015D4A518081788911C27841EA820101
:1011F000027941EA8221C1F30A01574A91800179BB
:101200004910427941EAC211C1F30A01524AD18020
:1012100041790911890811724179C1F301115172A3
:101220008179C27941EA022109B24B4A9181017A5E
:10123000427A41EA02210AB24749CA81817AC27AD6
:1012400041EA02210AB244490A82027B8A74427B43
:10125000CA74817BC27B41EA02213F4A9182017CB0
:10126000427C41EA0221C1F30A013B4A5181114605
:10127000C98A491CD18211460988A1F5806109B249
:10128000118011464988A1F5806109B2518011464B
:101290008988A1F5806109B291801146C988A1F5BC
:1012A000806109B2D18011464989A1F5806109B2F6
:1012B00051811146B1F90010142907DC1146B1F92A
:1012C000001011F1140F01DB002111802249B1F946
:1012D0000210142908DC2049B1F9021011F1140F91
:1012E00002DB00211C4A51801B49B1F9041014296A
:1012F00008DC1949B1F9041011F1140F02DB0021C7
:10130000154A91801449B1F90610142908DC1249D4
:10131000B1F9061011F1140F02DB00210E4AD18041
:101320000D49B1F90A10142908DC0B49B1F90A106A
:1013300011F1140F02DB0021074A51810649B1F96E
:101340000010064A12681144044A11600121044A3F
:10135000117000BF35E70000E00100200801002007
:101360000001002010B5002004E00A49095C0A4A87
:101370001154401C1228F8DB00F010F8022005F090
:1013800048FF00F027F8022005F043FF00F014F8B2
:1013900010BD0000104900209358002010B5044BE8
:1013A00040F2351200210348FFF7E0FB10BD0000BA
:1013B00093580020C007002010B5044B40F23312B0
:1013C00000210348FFF7D2FB10BD0000A358002006
:1013D000C007002010B5044B4FF49A720021034857
:1013E000FFF7C4FB10BD00009B580020C007002081
:1013F00038B504462068006800F0100010282CD191
:101400002068C06800F0100038B300BF00200090D2
:1014100020680068009020684068009000BF00BF0E
:10142000606B0068006820F00100616B096808606B
:10143000606B00684068042803D10848C169084807
:1014400088471620616B09684860606B0068006817
:1014500040F00100616B0968086038BDE0010020C0
:101460001049002000BF14480068401C1249086061
:1014700012480078012809D1FFF774FF104800686E
:10148000401C0F49086000200C4908700D48407A44
:1014900003280DD10C480088401C0B4908800846E1
:1014A0000088042804DD03F077FD00200649088049
:1014B000012005F0AEFED6E7580000200001002014
:1014C00004010020E0010020440100207047704723
:1014D00010B52DED068B04462046FFF7D1F841EC00
:1014E0001A0B53EC1A2B9FED0A0B51EC100BFFF764
:1014F00047F841EC190B9FED080B53EC102BFEF74E
:10150000CDFF41EC180BFFF7E7F8BDEC068B10BDE3
:10151000000000000000F03F0000000000408F408D
:101520000FB410B540F206210298884202D010BCD8
:101530005DF814FB0298A0F2052402A8407F9DF8F4
:10154000241040EA012004EBC4014A4A22F8210099
:1015500002A8C17F807F41EA002000B204EBC401F1
:1015600002EB8101488004EBC400114601EB8000CE
:10157000B0F9020000EE100AB8EEC00A04EBC40095
:1015800001EB800080ED010A9DF829109DF82800EC
:1015900041EA002000B204EBC40102EB81010881A2
:1015A0009DF82A0004EBC40102EB8101887204EB70
:1015B000C400114631F8200004EBC40102EB8101A4
:1015C000B1F91210401A10F5E15F0BDA04EBC40018
:1015D000114601EB80004069401C04EBC40102EBA2
:1015E0008101486104EBC400224901EB8000B0F99D
:1015F000120004EBC4011F4A32F82110401A10F502
:10160000E15F0BDA04EBC400114601EB8000406996
:10161000401E04EBC40102EB8101486104EBC400ED
:10162000144931F8200004EBC401124A02EB810195
:1016300049694FF4005202FB010000EE100AB8EEB7
:10164000C00A04EBC4000B4901EB800080ED060AE0
:1016500004EBC40031F8200000B204EBC401054AD9
:1016600002EB810148820449A1F1080000F01DF954
:1016700000BF5CE798490020145E00202DE9FC4182
:1016800007460C4615461E46380A8DF80000F8B28B
:101690008DF80100200A8DF80200E0B28DF80300F9
:1016A000280A8DF80400E8B28DF80500300A8DF89C
:1016B0000600F0B28DF807006B4640F2FF120021E1
:1016C0000248FFF753FABDE8FC81000098070020AC
:1016D0000FB410B540F205210298884202D010BC28
:1016E0005DF814FB0298A0F2052402A8407F9DF843
:1016F000241040EA012004EBC4014A4A22F82100E8
:1017000002A8C17F807F41EA002000B204EBC4013F
:1017100002EB8101488004EBC400114601EB80001C
:10172000B0F9020000EE100AB8EEC00A04EBC400E3
:1017300001EB800080ED010A9DF829109DF828003A
:1017400041EA002000B204EBC40102EB81010881F0
:101750009DF82A0004EBC40102EB8101887204EBBE
:10176000C400114631F8200004EBC40102EB8101F2
:10177000B1F91210401A2C4988420BDA04EBC4006C
:10178000114601EB80004069401C04EBC40102EBF0
:101790008101486104EBC400224901EB8000B0F9EB
:1017A000120004EBC4011F4A32F82110401A1E49EE
:1017B00088420BDA04EBC400114601EB800040695B
:1017C000401E04EBC40102EB8101486104EBC4003C
:1017D000144931F8200004EBC401124A02EB8101E4
:1017E00049694FF4005202FB010000EE100AB8EE06
:1017F000C00A04EBC4000B4901EB800080ED060A2F
:1018000004EBC40031F8200000B204EBC401054A27
:1018100002EB810148820549A1F1080000F045F87A
:1018200000BF5CE7984900209CE6FFFF085E0020AF
:1018300030B5034613B94FF6FF7030BD09E013F819
:10184000014B82EA0400C0B2054D35F8100080EA71
:101850002222081EA1F10101F1D11046EDE700009E
:10186000EE8F00080A68526A12B20280B0F90020B6
:10187000B0F90830D21A12F5616F02DAC268521C50
:10188000C260B0F90820B0F90030D21A12F5616FC9
:1018900002DAC268521EC260B0F90030C26803EBBF
:1018A0000232026102880281704770B504460D461B
:1018B00007F0DCF82060D4E90012881AFFF708FE70
:1018C00028602068606070BD70B504460D4606480B
:1018D00001F056FD0646281B401CB6FBF0F100FB4C
:1018E0001160204480B270BDE8070020F0B50446C6
:1018F0000D461E4694F8207020688368A86800B9D9
:1019000000E000BF012F01D0022F7CD103F08060E6
:1019100030B903F0006018B903F08050002873D08C
:10192000C3F30161022905D9606A40F400006062D6
:101930000120F0BD012088403060A86860B9B5F88A
:1019400000C0E86840EA4C5C206800F5C07000EB1D
:101950000110C0F800C00FE0D5E901C040EACC009A
:10196000D5F80CC040EA0C00D4F800C00CF5C07CDF
:101970000CEB011CCCF80000D5F810C0206800F575
:10198000C07000EB0110C0F804C0287D01280ED102
:10199000206800F5C07000EB0110406840F4807CC6
:1019A000206800F5C07000EB0110C0F804C0D079C9
:1019B000000692F806C040EA0C4092F805C040EAE2
:1019C0000C2C10794CEA000C206800F5C07000EB7C
:1019D0000110C0F80CC0D078000692F802C040EAAE
:1019E0000C4092F801C040EA0C2092F800C040EA96
:1019F0000C00D4F800C00CF5C07C0CEB011CCCF83A
:101A00000800206801E016E00FE000F5C07000EB70
:101A10000110006840F0010C206800F5C07000EB78
:101A20000110C0F800C0002083E7606A40F4001095
:101A3000606201207DE7606A40F4802060620120DE
:101A400077E70000F0B504460A46216894F8205074
:101A5000012D01D0022D7ED1424901F500710868A7
:101A600040F001000860086820F47C5008600868B5
:101A7000566A40EA06200860107D00F01F0601202B
:101A800000FA06F3C8699843C861A1F50071D069EE
:101A9000C8B9D1F80C029843C1F80C02908880B202
:101AA000968940EA064601F51070576940F837609C
:101AB000108880B2168940EA064601F51070576911
:101AC00000EBC7004660D069012819D1D1F80C029B
:101AD0001843C1F80C02908880B2168840EA064686
:101AE00001F51070576940F83760908980B2168907
:101AF00040EA064601F51070576900EBC7004660E2
:101B0000906928B9D1F804029843C1F8040204E0AE
:101B1000D1F804021843C1F80402106928B9D1F8B9
:101B200014029843C1F8140204E0D1F814021843D7
:101B3000C1F81402106A012804D1D1F81C0218431C
:101B4000C1F81C02D1F8000220F00100C1F8000227
:101B50000020F0BDFFE7606A40F480206062012051
:101B6000F7E7000000640040704770B5044694F841
:101B70002050012D01D0022D7DD151B92068C068BF
:101B800000F0030080B9606A40F400106062012038
:101B900070BD2068006900F0030028B9606A40F455
:101BA000001060620120F3E7206800F5D87000EBB8
:101BB0000110006800F004009060906840B920684F
:101BC00000F5D87000EB01100068400D106007E0D0
:101BD000206800F5D87000EB01100068C008506064
:101BE000206800F5D87000EB0110006800F00200DA
:101BF000D060206800F5D87000EB0110406800F05C
:101C00000F001061206800F5D87000EB01104068EB
:101C100000F47F40000A9061206800F5D87000EB66
:101C200001104068000C5061206800F5D87000EB8E
:101C3000011080681870206800F5D87000EB011062
:101C4000806800F47F40000A5870206800F5D87062
:101C500000EB0110806800F47F00000C9870206891
:101C600000F5D87000EB01108068000ED870206875
:101C700000F5D87000E02FE000EB0110C06818718B
:101C8000206800F5D87000EB0110C06800F47F40B8
:101C9000000A5871206800F5D87000EB0110C06888
:101CA00000F47F00000C9871206800F5D87000EBFC
:101CB0000110C068000ED87131B92068C06840F0CA
:101CC00020002668F06005E02068006940F02000F0
:101CD0002668306100205BE7606A40F48020606223
:101CE000012055E72DE9F05F04460025206846698C
:101CF0002068D0F80490206887682068D0F80CA08D
:101D00002068D0F810B02068D0F8188006F00100E4
:101D1000002855D007F00100C0B10120216888607B
:101D200007F0020018B1204600F0F3FA0EE007F0C9
:101D3000040010B145F4006508E007F0080010B198
:101D400045F4805502E0204600F0E2FA07F4807086
:101D5000C8B14FF480702168886007F4007018B132
:101D6000204600F0D8FA0EE007F4806010B145F488
:101D7000005508E007F4006010B145F4804502E02A
:101D8000204600F0C7FA07F48030C8B14FF4803025
:101D90002168886007F4003018B1204600F0BDFAD1
:101DA0000EE007F4802010B145F4004508E007F488
:101DB000002010B145F4803502E0204600F0ACFA76
:101DC00006F0080038B10AF0100020B145F40075A3
:101DD00010202168C86006F0040040B10AF0080035
:101DE00028B108202168C860204600F00FFA06F0EC
:101DF000020038B12068C06800F0030010B120462E
:101E000000F006FA06F0400038B10BF0100020B1E7
:101E100045F4806510202168086106F0200040B17B
:101E20000BF0080028B1082021680861204600F066
:101E30003DFA06F0100038B12068006900F0030098
:101E400010B1204600F033FA06F4003040B109F03A
:101E5000100028B1102021684860204600F028FAC0
:101E600006F4803040B109F0080028B1082021684C
:101E70004860204600F052FA06F4004088B309F0AA
:101E8000040078B306F4807020B108F0010008B1B6
:101E900045F0010506F4007020B108F0020008B119
:101EA00045F0020506F4806020B108F0040008B196
:101EB00045F0040506F40060A0B108F0700088B198
:101EC00008F07000402817D006DC10280BD020281E
:101ED0000CD0302819D10CE0502810D0602814D133
:101EE00010E01DE019E045F008050FE045F0100591
:101EF0000CE045F0200509E045F0400506E045F01E
:101F0000800503E045F4807500E000BF00BF206855
:101F1000806920F070002168886104202168486091
:101F20002DB1606A284360622046FFF71DFEBDE8C0
:101F3000F09F70B504460CB9012070BD94F82000E4
:101F400010B9204600F0B0F82068006820F00200C8
:101F50002168086000F034FD05460DE000F030FD1A
:101F6000401B0A2808D9606A40F4003060620520EE
:101F700084F820000120E0E72068406800F00200BB
:101F80000028EBD12068006840F00100216808605B
:101F900000F016FD05460DE000F012FD401B0A287A
:101FA00008D9606A40F400306062052084F820009F
:101FB0000120C2E72068406800F001000028EBD053
:101FC000207E012806D12068006840F0800021684A
:101FD000086005E02068006820F080002168086043
:101FE000607E012806D12068006840F0400021682A
:101FF000086005E02068006820F040002168086063
:10200000A07E012806D12068006840F020002168E9
:10201000086005E02068006820F020002168086062
:10202000E07E012806D12068006820F010002168B9
:10203000086005E02068006840F010002168086032
:10204000207F012806D12068006840F00800216840
:10205000086005E02068006820F00800216808603A
:10206000607F012806D12068006840F004002168E4
:10207000086005E02068006820F00400216808601E
:10208000D4E9020108432169084361690843616892
:10209000491E08432168C86100206062012084F85D
:1020A0002000002049E7000010B586B00446142146
:1020B00001A8FEF741F94F492068884241D14E48B6
:1020C0000068401C4C4908600846006801280FD190
:1020D00000BF002000904948006840F00070474968
:1020E00008600846006800F00070009000BF00BF64
:1020F00000BF0020009041481038006840F0080000
:102100003E49103908600846006800F00800009059
:1021100000BF00BF03200190022002900020039026
:10212000032004900920059001A9354800F032FBF6
:1021300000220621142000F0EDFC142000F0DAFC4F
:1021400055E030492068884251D100BF00200090FE
:102150002A48006840F08060284908600846006806
:1021600000F08060009000BF00BF23480068401C62
:10217000214908600846006801280FD100BF0020EF
:1021800000901E48006840F000701C490860084636
:10219000006800F00070009000BF00BF00BF00208A
:1021A000009016481038006840F0020013491039BA
:1021B00008600846006800F00200009000BF00BF01
:1021C0004FF4405001900220029000200390032021
:1021D00004900920059001A90B4800F0DBFA0022C9
:1021E0000621402000F096FC402000F083FC06B061
:1021F00010BD00000064004048010020403802404B
:10220000000C0240006800400004024070470000DB
:102210001CB504461E48844212D11E48006878B19D
:102220001D4BA3F11C0200211948FFF79EFC00235F
:1022300001AA19491C391748006806F001FA00BFC5
:10224000019838B14FF0805014490860BFF34F8FA8
:10225000BFF36F8F124884420ED1124BA3F11C02C0
:102260000021FFF782FC00236A460E491C390E4804
:10227000006806F0E5F900BF009838B14FF08050D3
:1022800006490860BFF34F8FBFF36F8F1CBD00007E
:102290009807002020010020B40B002004ED00E08E
:1022A000C0070020D80B0020240100207047704791
:1022B000704770B5044694F82000012822D102200E
:1022C00084F820002068006820F001002168086080
:1022D00000F076FB05460DE000F072FB401B0A287B
:1022E00008D9606A40F400306062052084F820005C
:1022F000012070BD2068406800F001000028EBD18B
:102300006062F6E7606A40F4002060620120F0E756
:102310007047704770477047704770477047014675
:1023200091F83500022803D08020486501207047CD
:10233000052081F835000868006820F001000A686F
:1023400010600020F3E70000F8B50446002000907C
:102350008C4800684FF41651B0FBF1F7A56D2E685C
:1023600094F85C1008208840304098B120680068DC
:1023700000F0040070B12068006820F004002168BB
:10238000086094F85C1008208840A860606D40F0F8
:102390000100606594F85C1001208840304068B10D
:1023A0002068406900F0800040B194F85C10012082
:1023B0008840A860606D40F00200606594F85C1091
:1023C00004208840304068B12068006800F00200B6
:1023D00040B194F85C1004208840A860606D40F023
:1023E0000400606594F85C1010208840304078B399
:1023F0002068006800F0080050B394F85C101020CA
:102400008840A8602068006800F4802080B12068BF
:10241000006800F4002028B9206CC8B12046216C67
:10242000884715E0A06C98B12046A16C88470FE062
:102430002068006800F4807028B92068006820F0E7
:10244000080021680860206C10B12046216C884784
:1024500094F85C10202088403040002865D0206827
:10246000006800F0100000285FD094F85C10202075
:102470008840A86094F83500052828D120680068B5
:1024800020F01600216808602068406920F0800074
:1024900021684861206C08B9A06C28B120680068E8
:1024A00020F008002168086094F85C103F20884004
:1024B000A86000BF002084F8340000BF012084F829
:1024C0003500206D10B12046216D8847F8BD206889
:1024D000006800F4802080B12068006800F40020CB
:1024E00028B9606C10B12046616C88471DE0E06B34
:1024F000D8B12046E16B884717E02068006800F4F7
:10250000807068B92068006820F0100021680860B9
:1025100000BF002084F8340000BF012084F835009B
:10252000E06B10B12046E16B8847606D38B3606D99
:1025300000F00100F0B1052084F835002068006843
:1025400020F001002168086000BF0098401C009046
:10255000B84200D905E02068006800F001000028BA
:10256000F3D100BF00BF002084F8340000BF012079
:1025700084F83500E06C10B12046E16C884700BF5C
:10258000A4E700007C0100202DE9F041044600256D
:1025900000F016FA074614B90120BDE8F081606A20
:1025A00000B100BF00BF002084F8340000BF02204B
:1025B00084F835002068006820F001002168086078
:1025C0000AE000F0FDF9C01B052805D92020606550
:1025D000032084F83500E0E72068006800F001007F
:1025E0000028EED12068056821480540D4E90101A2
:1025F0000843E16808432169084361690843A16908
:102600000843E1690843216A08430543606A0428D6
:1026100003D1D4E90B010843054320680560206815
:10262000456925F00705606A0543606A04280DD1F5
:10263000A06A0543E06A48B12046FEF755FD28B17F
:1026400040206065012084F83500A6E720684561D8
:102650002046FEF72FFD064694F85C103F20884088
:10266000B06000206065012084F83500002094E708
:102670003F8010F02DE9F04104460D4616461F46F6
:102680004FF0000800BF94F83400012802D1022066
:10269000BDE8F081012084F8340000BF94F83500D3
:1026A000012811D1022084F83500002060653B46E6
:1026B000324629462046FEF76CFD2068006840F04F
:1026C00001002168086006E000BF002084F83400A3
:1026D00000BF4FF002084046DAE72DE9F047044614
:1026E0000D4616461F464FF00008D4F8589000BF1C
:1026F00094F83400012802D10220BDE8F0870120BF
:1027000084F8340000BF94F83500012825D1022058
:1027100084F83500002060653B4632462946204655
:10272000FEF737FD94F85C103F208840C9F8080098
:102730002068006840F0160021680860206C28B10D
:102740002068006840F00800216808602068006880
:1027500040F001002168086006E000BF002084F816
:10276000340000BF4FF002084046C6E770B504468B
:1027700000F026F906462546681C10B1044800788A
:10278000054400BF00F01CF9801BA842FAD370BDBD
:1027900078010020F8B502460B46002500240020F1
:1027A0000021E6E0012606FA01F51E6806EA0504A6
:1027B000AC4273D15E68012E08D05E68022E05D04F
:1027C0005E68112E02D05E68122E13D190684F0001
:1027D0000326BE40B0434F00DE68BE4030439060E9
:1027E000506801268E40B0431E79C6F300168E4015
:1027F00030435060D0684F000326BE40B0434F00C6
:102800009E68BE403043D0605E68022E02D05E6893
:10281000122E13D1CF0802F1200656F827004E07DA
:10282000F70E0F26BE40B0434F07FF0E1E69BE4095
:102830003043CF0802F1200646F8270010684F0009
:102840000326BE40B0431E7906F003064F00BE408B
:10285000304310605E6806F08056B6F1805FA8D104
:1028600000BF00260096454E366846F48046434F2A
:102870003E603E46366806F48046009600BF00BFC4
:102880003F4E8F0856F827008E07370F0F26BE40A1
:10289000B0433C4EB24202D100262EE068E03A4EF0
:1028A000B24201D1012628E0384EB24201D10226BF
:1028B00023E0374EB24201D103261EE0354EB2422C
:1028C00001D1042619E0344EB24201D1052614E0AC
:1028D000324EB24201D106260FE0314EB24201D152
:1028E00007260AE02F4EB24201D1082605E02E4EFF
:1028F000B24201D1092600E00A268F073F0FBE40F1
:1029000030431F4E8F0846F82700284E3068A043FA
:102910005E6806F48036B6F5803F00D12043234E32
:102920003060361D3068A0435E6806F40036B6F5A8
:10293000003F00D120431D4E361D3060361D3068EB
:10294000A0435E6806F48016B6F5801F00D12043D0
:10295000164E08363060361D3068A0435E6806F4B7
:102960000016B6F5001F00D12043104E0C36306023
:10297000491C1029FFF416AFF8BD0000443802408E
:1029800008380140000002400004024000080240F4
:10299000000C0240001002400014024000180240E7
:1029A000001C02400020024000240240003C014084
:1029B000024613690B400BB1012000E00020704774
:1029C000014800687047000070010020034800685B
:1029D00003490978084401490860704770010020E4
:1029E0007801002010B50D48006840F400700B49D4
:1029F00008600846006840F4806008600846006887
:102A000040F480700860032000F0C2F8002000F05D
:102A100007F800F04BF8002010BD0000003C024019
:102A200070B588B0044600250026002221463620D5
:102A300000F070F8362000F05DF800BF0020019033
:102A40001648006840F01000144908600846006805
:102A500000F01000019000BF00BF02A903A800F021
:102A60006DF900F093F945000D48B5FBF0F0461EF6
:102A70000C480D49086040F2E7310B48C1604660E0
:102A800000210161816000F017FD20B9064800F0C7
:102A90006FFD08B070BD0120FBE700004038024028
:102AA00040420F0000100040E00B002008B500BFBE
:102AB000002000900E48006840F480400C490860F7
:102AC0000846006800F48040009000BF00BF00BFCF
:102AD00000200090081F006840F08050091F086027
:102AE0000846006800F08050009000BF00BF08BD9D
:102AF0004438024001460846002809DB00F01F0365
:102B000001229A4043099B0003F1E023C3F800210E
:102B100000BF70472DE9F05F80460D46164600273E
:102B200003F0B0FF074639462A46334601F0070056
:102B3000C0F1070ABAF1040F02D94FF0040A01E00C
:102B4000C0F1070AD14600F1040ABAF1070F02D218
:102B50004FF0000A01E0A0F1030AD4464FF0010A49
:102B60000AFA09FAAAF1010A0AEA020A0AFA0CFAAE
:102B70004FF0010B0BFA0CFBABF1010B0BEA030B53
:102B80004AEA0B042146404603F084FFBDE8F09F6B
:102B900000BF00F00702064B19684FF6FF0319400B
:102BA000044B0B4343EA0221014B196000BF7047FD
:102BB0000CED00E00000FA0570B504460D460CB9B6
:102BC000012070BD5848006800F00F00A84209D2EB
:102BD00055490D700846006800F00F00A84201D06A
:102BE0000120EEE7207800F0020002281DD12078B5
:102BF00000F00400042805D14C48006840F4E0507F
:102C00004A490860207800F00800082805D14748A4
:102C1000006840F46040454908604448006820F07E
:102C2000F000A168084341490860207800F00100E5
:102C3000A8B36068012807D13C4808380068C0F391
:102C40004040B8B90120BCE76068022802D0606843
:102C5000032807D1354808380068C0F3406048B9F8
:102C60000120AEE7314808380068C0F3400008B9D9
:102C70000120A6E72D48006820F0030061680843A2
:102C80002A490860FFF79CFE064609E0FFF798FE18
:102C9000801B41F28831884202D9032091E707E086
:102CA0002248006800F00C006168B0EB810FEDD1A4
:102CB0001D48006800F00F00A84209D91A490D709C
:102CC0000846006800F00F00A84201D0012078E714
:102CD000207800F00400042807D11448006820F48C
:102CE000E050E168084311490860207800F00800CE
:102CF000082808D10D48006820F46040216940EAA6
:102D0000C1000A49086000F061F808490968C1F388
:102D10000311074A515CC84006490860064800682C
:102D2000FFF77EFE00204CE7003C024008380240DE
:102D3000D48E00087C010020740100200F22026064
:102D40000D4A126802F0030242600B4A126802F058
:102D5000F0028260084A126802F4E052C260064A39
:102D6000126802F46042D2080261044A126802F05A
:102D70000F020A607047000008380240003C024021
:102D800001480068704700007C01002000B5FFF793
:102D9000F7FF04490968C1F38221034A515CC84026
:102DA00000BD000008380240E48E000800B5FFF7BF
:102DB000E7FF04490968C1F34231034A515CC84046
:102DC00000BD000008380240E48E00082DE9F047FD
:102DD000002400250026A1462548006800F00C00CC
:102DE00020B1042805D008283AD105E0DFF8849006
:102DF00039E0DFF8849036E01D48001F006800F0DD
:102E00003F041B48001F006800F4800078B11A4896
:102E10001749091F0968C1F38811A0FB0170014619
:102E2000224600233846FDF73DFA05460EE01148DC
:102E30000F49091F0968C1F38811A0FB0170014601
:102E4000224600233846FDF72DFA05460848001FA4
:102E50000068C0F30140401C4600B5FBF6F902E0F3
:102E6000DFF8109000BF00BF4846BDE8F0870000C3
:102E7000083802400024F400001BB700F8B50446EF
:102E80000CB90120F8BD207800F00100002874D0B2
:102E9000F948006800F00C0004280DD0F6480068DE
:102EA00000F00C00082813D1F348001F006800F45C
:102EB0008000B0F5800F0BD1EF4808380068C0F3F0
:102EC0004040002859D06068002856D10120D9E739
:102ED00000BF6068B0F5803F08D1E7480838006857
:102EE00040F48030E449083908601EE06068B0F5BD
:102EF000A02F0DD1E0480838006840F48020DE495A
:102F0000083908600846006840F4803008600CE02A
:102F1000D9480838006820F48030D749083908605B
:102F20000846006820F48020086000BF606890B107
:102F3000FFF746FD054606E0FFF742FD401B64280B
:102F400001D903209EE7CC4808380068C0F3404010
:102F50000028F1D011E0FFF733FD054606E0FFF74A
:102F60002FFD401B642801D903208BE7C248083895
:102F70000068C0F340400028F1D1207800F0020042
:102F800002285FD1BC48006800F00C0058B1BA4874
:102F9000006800F00C0008281CD1B748001F00682A
:102FA00000F48000B0B9B44808380068C0F34000AD
:102FB00020B1E068012801D0012063E7AE4808385D
:102FC000006820F0F800216940EAC100AA490839E8
:102FD000086037E0E06800B30120A8490860FFF707
:102FE000EFFC054606E0FFF7EBFC401B022801D989
:102FF000032047E7A04808380068C0F340000028D5
:10300000F1D09D480838006820F0F800216940EAB6
:10301000C10099490839086014E000209749086008
:10302000FFF7CEFC054606E0FFF7CAFC401B02286E
:1030300001D9032026E7904808380068C0F3400013
:103040000028F1D1207800F0080008282CD1606910
:10305000A8B101208A490860FFF7B2FC054606E0E6
:10306000FFF7AEFC401B022801D903200AE7824883
:103070006C300068C0F340000028F1D014E000205C
:103080007F490860FFF79CFC054606E0FFF798FCC7
:10309000401B022801D90320F4E677486C30006811
:1030A000C0F340000028F1D1207800F0040004288B
:1030B00070D1002770483830006800F0805090B917
:1030C00000BF002000906C483830006840F080500D
:1030D0006949383108600846006800F08050009067
:1030E00000BF00BF01276748006800F48070B0B9D6
:1030F0006448006840F4807062490860FFF760FC33
:10310000054606E0FFF75CFC401B022801D90320BE
:10311000B8E65C48006800F480700028F2D000BF78
:10312000A068012808D154486830006840F00100C8
:103130005149683108601DE0A06805280DD14E484E
:103140006830006840F004004B4968310860084668
:10315000006840F0010008600CE0474868300068F3
:1031600020F001004449683108600846006820F0FA
:103170000400086000BFA068A8B1FFF721FC054665
:1031800009E0FFF71DFC401B41F28831884202D95B
:10319000032077E626E0384868300068C0F3400036
:1031A0000028EED013E0FFF70BFC054608E0FFF720
:1031B00007FC401B41F28831884201D9032061E6B7
:1031C0002D4868300068C0F340000028EFD1012F7F
:1031D00007D129483830006820F08050264938311E
:1031E000086000BFA069002845D02348006800F0AF
:1031F0000C0008285DD0A069022845D100201F4995
:103200000866FFF7DDFB054606E0FFF7D9FB401B2C
:10321000022801D9032035E6174808380068C0F3B2
:1032200040600028F1D1D4E907010843616A40EA0F
:1032300081110122A06AC2EB500041EA00412C201A
:10324000005D41EA00600C49091F086001200B493C
:103250000866FFF7B5FB054606E0FFF7B1FB401B2C
:10326000022801D903200DE6034808380068C0F39E
:1032700040600028F1D03FE008380240000047429B
:10328000800E47420070004000201C490866FFF78E
:1032900097FB054606E0FFF793FB401B022801D988
:1032A0000320EFE516480068C0F340600028F2D123
:1032B00022E0A069012800D1E4E51148001D06685C
:1032C00006F48001E069814214D106F03F01206AD2
:1032D00081420FD147F6C0703040616A884209D1FF
:1032E00006F44031A06A814204D106F07061E06AC0
:1032F000814201D00120C5E50020C3E5000047421E
:10330000003802402DE9F04104460E46002700BF78
:103310002079012802D10220BDE8F081012020712E
:1033200000BF6079012822D102206071FFF748FBBD
:1033300005460EE0FFF744FB401B022809D9012097
:1033400060710220A06000BF0020207100BF01203A
:10335000E2E72068406800F001000028EAD0206819
:103360008068E060E06830600120607102E0042065
:10337000A060012700BF0020207100BF3846CBE7C6
:1033800010B5044604F10C012046FFF7BBFF08B955
:10339000E06810BD0020FCE710B504460CB9012020
:1033A00010BD607920B900202071204600F00EF891
:1033B000022060712068006840F004002168086005
:1033C000012060710020A06000BFE9E708B50A4A4B
:1033D000016891420FD100BF00210091074909689F
:1033E00041F04001054A11601146096801F04001B1
:1033F000009100BF00BF08BD0008065034380240ED
:103400007047704730B502460B4600BF92F83C004B
:10341000012801D1022030BD012082F83C0000BF0C
:10342000022082F83D00106844681068816824F02A
:1034300070041868044310684460184D1068A8426E
:103440001BD01068B0F1804F17D0154D1068A842FE
:1034500013D0144D1068A8420FD0134D1068A84225
:103460000BD0124D1068A84207D0114D1068A84229
:1034700003D0104D1068A84205D121F08001586892
:10348000014310688160012082F83D0000BF0020E8
:1034900082F83C0000BF00BFBDE700000000014013
:1034A0000004004000080040000C004000040140FF
:1034B000004001400018004010B504460CB901203E
:1034C00010BD94F83D0028B9002084F83C00204647
:1034D00000F00CF8022084F83D00211D206802F065
:1034E0005FFC012084F83D000020E9E738B5044680
:1034F0001C492068884218D100BF002000901A485B
:10350000006840F00200184908600846006800F0B2
:103510000200009000BF00BF002207211D20FFF71E
:10352000F9FA1D20FFF7E6FA1BE0104920688842EF
:1035300017D100BF002000900B48006840F0200029
:10354000094908600846006800F02000009000BFAC
:1035500000BF002206213720FFF7DCFA3720FFF7F3
:10356000C9FA38BD00040040403802400014004051
:1035700001460868C06840F001000B68D860086820
:10358000806800F00702062A05D00868006840F04D
:1035900001000B681860002070472DE9F0410446D7
:1035A0000D4600BF94F83C00012802D10220BDE87E
:1035B000F081012084F83C0000BF022084F83D0027
:1035C0002068866826F0770626F47F4620688660A5
:1035D0002868502833D00CDC202850D004DC002888
:1035E0004BD0102851D149E0302849D040284CD147
:1035F00039E060282DD0702807D0B0F5805F03D067
:10360000B0F5005F41D10DE040E0D5E902136A68F2
:10361000206802F042FC2068866846F07706206841
:10362000866033E0D5E902136A68206802F035FC51
:103630002068806840F480402168886026E0EA685D
:103640006968206802F03DFC5021206802F030FCDF
:103650001CE0EA686968206802F046FC6021206886
:1036600002F026FC12E0EA686968206802F029FC92
:103670004021206802F01CFC08E000BF00BF00BF32
:103680002968206802F014FC00E000BF00BF0120A0
:1036900084F83D0000BF002084F83C0000BF00BF5C
:1036A00085E72DE9F04104460D4614B90120BDE837
:1036B000F08194F83D0028B9002084F83C002046B1
:1036C00000F046F8022084F83D002068806844F24B
:1036D0000701884321688860211D206802F060FB93
:1036E0002068D0F80880206886692068076A286802
:1036F00040EA080840F203308643A969A86840EA16
:103700000120064340F60C4086434FF2F00086430A
:10371000E969E86840EA0120064328690001296A4E
:1037200040EA0130064327F0220727F0880769693D
:10373000686840EA011007432068C0F808802068E4
:10374000866120680762012084F83D000020AEE712
:1037500010B586B00446142101A8FCF7EDFD1A4906
:10376000206888422ED100BF0020009017480068D2
:1037700040F00800154908600846006800F008009D
:10378000009000BF00BF00BF002000900F4810381D
:10379000006840F001000D491039086008460068D3
:1037A00000F00100009000BF00BF03200190022044
:1037B00002900120039002200490059001A9044882
:1037C000FEF7E8FF06B010BD000C00404038024094
:1037D0000000024030B504460D4615B1042D0CD151
:1037E00005E001220021206802F046FB10E00122E2
:1037F0000421206802F040FB0AE001220021206839
:1038000002F03AFB01220421206802F035FB00BFE0
:1038100000BF2068006840F00100216808600020B7
:1038200030BD704710B5044620680069C0F3400001
:10383000D8B12068C068C0F34000B0B16FF002009A
:1038400021680861012020772068806900F003006A
:1038500018B12046FFF7E5FF05E0204600F0ADF87F
:10386000204600F0ABF80020207720680069C0F304
:103870008000D8B12068C068C0F38000B0B16FF09C
:10388000040021680861022020772068806900F424
:10389000407018B12046FFF7C4FF05E0204600F055
:1038A0008CF8204600F08AF8002020772068006914
:1038B000C0F3C000D8B12068C068C0F3C000B0B188
:1038C0006FF0080021680861042020772068C06933
:1038D00000F0030018B12046FFF7A3FF05E02046E3
:1038E00000F06BF8204600F069F80020207720688F
:1038F0000069C0F30010D8B12068C068C0F30010A0
:10390000B0B16FF0100021680861082020772068AE
:10391000C06900F4407018B12046FFF782FF05E04F
:10392000204600F04AF8204600F048F800202077B2
:103930002068006900F0010058B12068C06800F0FC
:10394000010030B16FF0010021680861204600F0ED
:1039500037F820680069C0F3C01058B12068C0680B
:10396000C0F3C01030B16FF08000216808612046BC
:10397000FFF746FD20680069C0F3801058B1206849
:10398000C068C0F3801030B16FF04000216808615A
:10399000204600F021F820680069C0F3401058B1BB
:1039A0002068C068C0F3401030B16FF0200021687B
:1039B00008612046FFF725FD10BD704770470000E5
:1039C00010B5044603492068884201D1FEF7FEFF86
:1039D00010BD000000100040704770472DE9F0470F
:1039E0000446206805682068C668206847694FF06B
:1039F0000008C14605F00F08B8F1000F0AD105F024
:103A0000200038B106F0200020B1204602F010FB63
:103A1000BDE8F087B8F1000F72D007F0010018B9C7
:103A200006F4907000286BD005F0010030B106F468
:103A3000807018B1E06B40F00100E06305F0040015
:103A400030B107F0010018B1E06B40F00200E06314
:103A500005F0020030B107F0010018B1E06B40F052
:103A60000400E06305F0080048B106F0200010B93A
:103A700007F0010018B1E06B40F00800E063E06B74
:103A800070B305F0200028B106F0200010B12046E8
:103A900002F0CEFA20684069C0F38019E06B00F0B4
:103AA000080010B9B9F1000F23D0204602F096FAB1
:103AB0002068406900F04000402816D12068406925
:103AC00020F0400021684861606B50B11748616B7D
:103AD0000865606BFEF723FC10B1606B016D8847D1
:103AE0000CE02046FFF779FF08E02046FFF775FF5E
:103AF00004E02046FFF771FF0020E06388E7FFE75E
:103B000005F0800030B106F0800018B1204602F0C8
:103B1000D7FC7DE705F0400030B106F0400018B159
:103B2000204602F06BFA73E700BF71E7355F0008CB
:103B300010B504460CB9012010BDA06900B100E029
:103B400000BF94F8390028B9002084F838002046D6
:103B500000F028F8242084F839002068C06820F498
:103B600000502168C860204602F0B6FA206800695B
:103B700020F49040216808612068406920F02A0004
:103B8000216848612068C06840F400502168C8601E
:103B90000020E063202084F8390084F83A000020F7
:103BA000CAE7000010B586B00446142101A8FCF74E
:103BB000C3FBCD492068884258D100BF0020009047
:103BC000CA48006840F00040C849086008460068DC
:103BD00000F00040009000BF00BF00BF0020009038
:103BE000C2481038006840F01000C0491039086021
:103BF0000846006800F01000009000BF00BF0320DE
:103C000001900220029001200390032004900820DC
:103C1000059001A9B648FEF7BDFDB648B649086053
:103C2000000548600021B4488160C1604FF48061A4
:103C300001610021416181614FF48071C16109021C
:103C4000016200214162FEF79FFC08B1FDF73FFCD5
:103C500000BFA9486063846300BF0022072153208E
:103C6000FEF758FF5320FEF745FF3BE1A3492068CC
:103C700088425BD100BF002000909C48001D006876
:103C800040F010009949091D08600846006800F0DE
:103C90001000009000BF00BF00BF002000909348BC
:103CA0001038006840F0020090491039086008465A
:103CB000006800F00200009000BF00BFC02001902B
:103CC000022002900020039003200490072005901A
:103CD00001A98B48FEF75EFD8A488B4908604FF0CA
:103CE00000604860002188488160C1604FF48061B5
:103CF00001610021416181614FF48071C16149021C
:103D0000016200214162FEF73FFC08B1FDF7DFFBD5
:103D100000BF7D486063846300BF00220721252027
:103D2000FEF7F8FE2520FEF7E5FEDBE07749206888
:103D300088425AD100BF002000906C48006840F4CF
:103D400080206A4908600846006800F480200090DE
:103D500000BF00BF00BF002000906448103800681A
:103D600040F008006149103908600846006800F01A
:103D70000800009000BF00BF4FF440700190022087
:103D8000029000200390032004900720059001A9D1
:103D90005F48FEF7FFFC574878385E4908604FF0EF
:103DA0000060486000215B488160C1604FF4806121
:103DB00001610021416181614FF48071C161002185
:103DC00001624162FEF7E0FB08B1FDF780FB00BF36
:103DD00050486063846300BF002207212720FEF75C
:103DE00099FE2720FEF786FE7CE04B49206888423A
:103DF00078D100BF002000903C48001D006840F0D2
:103E000020003A49091D08600846006800F02000BB
:103E1000009000BF00BF00BF002000903348103862
:103E2000006840F004003149103908600846006815
:103E300000F00400009000BF00BFC02001900220ED
:103E4000029000200390032004900820059001A90F
:103E50003248FEF79FFC2B4818383149086080052E
:103E6000486000212E488160C1604FF4806101618B
:103E7000002141618161C1614FF440310162002143
:103E80004162FEF781FB08B1FDF721FB00BF24482A
:103E90006063846300BF1B486030224908604FF0B4
:103EA0002060486040211F4881600021C1604FF4BC
:103EB00080610161002141618161C16101624162F2
:103EC000FEF762FB08B1FDF702FB00BF1548206357
:103ED000846300BF002206214720FEF71BFE472017
:103EE000FEF708FE06B010BD007C004040380240DE
:103EF00000100240A0600240B809002000100140FC
:103F00000004024040640240180A002000480040BB
:103F1000000C0240780A0020001401400008024012
:103F2000D80A0020380B002070470000F7B504467F
:103F3000154694F8390020283DD1019800B10DB9FB
:103F40000120FEBD00BF94F83800012801D10220F5
:103F5000F7E7012084F8380000BF01982062A584AB
:103F6000E5840020E063212084F839001348216BA8
:103F7000C8631348216B08641248216BC864002091
:103F8000216B086501AE23681A1D31682B46206B32
:103F9000FEF7A3FB6FF040002168086000BF00201F
:103FA00084F8380000BF2068406940F08000216834
:103FB00048610020C5E70220C3E70000995F0008C0
:103FC000CF5F0008495F00087047704700BFFEE7F9
:103FD00010B52DED088BB0EE408AF0EE608A00241B
:103FE00018EE900AFCF791FB41EC190B18EE100A41
:103FF000FCF78BFB41EC1B0BB0EE4B0AF0EE6B0AAF
:1040000002F05CFDB0EE40AAF0EE60AA53EC192B72
:1040100051EC1A0BFCF78CFB00D801242046BDECB8
:10402000088B10BD80ED000AC0ED010A80ED021A78
:10403000DFED225AC0ED035ADFED205AC0ED045ADD
:10404000D0ED035A90ED046A75EEC65AC0ED055ADC
:10405000C0ED061A80ED072AC0ED082ADFED175AD9
:10406000C0ED095ADFED155AC0ED0A5ADFED135ABB
:10407000C0ED0B5A80ED0C3ADFED105AC0ED0D5A31
:10408000C0ED0F3A80ED104ADFED0C5AC0ED115A29
:10409000DFED0A5AC0ED125AC0ED134A80ED145AF2
:1040A000D0ED055AC0ED155AD0ED155AC0ED165A8F
:1040B000DFED025AC0ED0E5A70470000000000000C
:1040C00070B52DED028B0446B0EE408AF0EE608AAA
:1040D00084ED038AC4ED048A94ED030AD4ED040A46
:1040E00030EE600A84ED050A94ED050AD4ED150A58
:1040F00030EE600A84ED090A94ED050AD4ED150A44
:10410000B0EE001A01EE600AD4ED160A30EE200A75
:1041100084ED0B0A94ED020AD4ED0C0AB7EE001AF6
:1041200071EE600A20EE200AD4ED0B0A20EE200A80
:10413000D4ED0C0A94ED0E1A00EE810A84ED0D0AFE
:1041400094ED061AF0EE410A94ED051AB0EE410A1C
:10415000FFF73EFF054675B994ED000AD4ED090A54
:1041600020EE200AD4ED020A94ED0B1A00EE810A2B
:1041700084ED110A59E094ED120AD4ED0F0AB4EE61
:10418000E00AF1EE10FA13DD94ED050AB5EEC00A6F
:10419000F1EE10FA35D894ED050AD4ED150A30EE9B
:1041A000200AF0EE000A80EE201A84ED0A1A28E0B8
:1041B00094ED120AD4ED100AB4EEE00AF1EE10FA12
:1041C00013D294ED050AB5EEC00AF1EE10FA18DB31
:1041D00094ED050AD4ED150A30EE200AF0EE000A3F
:1041E00080EE201A84ED0A1A0BE094ED050AD4ED56
:1041F000150A30EE200AF0EE000A80EE201A84ED57
:104200000A1A94ED000AD4ED090A20EE200AD4ED32
:10421000010A94ED0A1A00EE810AD4ED020A94ED27
:104220000B1A00EE810A84ED110A94ED120AD4ED06
:10423000110A30EE200A84ED120A94ED120AD4ED30
:10424000130AB4EEE00AF1EE10FA04DD94ED130A5D
:1042500084ED120A0CE094ED120AD4ED140AB4EEC7
:10426000E00AF1EE10FA03D294ED140A84ED120A7A
:1042700094ED150A84ED160A94ED050A84ED150AED
:1042800094ED0D0A84ED0E0A94ED120ABDEC028B3A
:1042900070BD000038B504462068006800F01000CA
:1042A000102830D12068C06800F0100058B300BF5B
:1042B000002000902068006800902068406800900E
:1042C00000BF00BF606B0068006820F00100616BF8
:1042D00009680860606B006840680B4908800988BD
:1042E00040F28512511A88B200F010F840F28510A1
:1042F000616B09684860606B0068006840F001000D
:10430000616B0968086038BDEA02002070B5054697
:104310000024E5E1FC48005DA52879D1FA49601D3B
:10432000095CF94AA01D105C41EA002040F202221B
:10433000811A90426DD017DC40F20112A0EB02010D
:10434000904267D006DC062879D2DFE800F07822B8
:104350003B4E6682012973D0032972D0042971D0A3
:10436000B1F5807F6BD1DBE005296CD008DC012939
:104370006AD0022969D0032968D00429F2D131E139
:1043800006297CD007297BD008297AD0FF29E9D1DA
:1043900091E1DD490819142102F0E0F980B1DA4910
:1043A000E01D0144D9480A6802604A6842600A89EF
:1043B0000281897A817214340120D449C87200E0E4
:1043C000641C8BE1D04908190A2102F0C7F950B1E9
:1043D000CD49E01D0144CE48097801700A3401201E
:1043E000CB49487000E0641C78E1C74908192921CD
:1043F00002F0B4F978B1C44AE01D11182022C54872
:10440000FBF781FF29340120C24981F8200003E035
:1044100065E199E038E0641C60E1BB4908190C21B2
:1044200002F09CF998B1B849E01D0844BA490288E5
:104430000A80807888700C340120C87008E04BE155
:1044400035E047E059E0E0E092E0A5E0B7E0641C29
:1044500044E1AD490819142102F080F990B1AA494C
:10446000E01D0844AD4902680A6042684A6002895A
:104470000A81807A887214340120C87203E0DBE07C
:10448000EFE001E1641C29E19F4908190D2102F0C8
:1044900065F950B19C49E01D0144A14809680160DB
:1044A0000D3401209E49087100E0641C16E1964914
:1044B00008190D2102F052F950B19349E01D014451
:1044C0009848096801600D3401209649087100E0A0
:1044D000641C03E18C4908190B2102F03FF950B12B
:1044E0008949E01D01449048098801800B3401206E
:1044F0008D49887000E0641CF0E0834908190A21A6
:1045000002F02CF950B18049E01D01448748097838
:1045100001700A3401208549487000E0641CDDE028
:1045200079490819242102F019F958B1764AE01D99
:1045300011181B227E48FBF7E6FE243401207C493B
:10454000C87600E0641CC9E06F490819192102F01F
:1045500005F958B16C4AE01D111810227548FBF797
:10456000D2FE193401207349087400E0641CB5E0E0
:1045700065490819192102F0F1F858B1624AE01DA5
:10458000111810226C48FBF7BEFE193401206A494D
:10459000087400E0641CA1E05B4908190A2102F0DC
:1045A000DDF850B15849E01D0144644809780170B4
:1045B0000A3401206149487000E0641C8EE05249D1
:1045C00008190A2102F0CAF850B14F49E01D014410
:1045D0005B48097801700A3401205949887000E06D
:1045E000641C7BE0484908190A2102F0B7F850B171
:1045F0004549E01D01445348097801700A340120FF
:104600005049487000E0641C68E03F4908191021D7
:1046100002F0A4F870B13C49E01D01444A480A6820
:1046200002608A888280897981711034012046492C
:10463000C87100E0641C51E0334908190F2102F0F1
:104640008DF860B13049E01D014440480A680260BD
:10465000898881800F3401203C49887100E0641C06
:104660003CE0294908190D2102F078F850B126499B
:10467000E01D01443648096801600D3401203449C9
:10468000087100E0641C29E01F490819152102F097
:1046900065F870B11C49E01D01442E480A680260AB
:1046A0004A6842608968816015340120294908738D
:1046B00000E0641C12E014490819232102F04EF8AE
:1046C00040B1114AE01D11181A222348FBF71BFEC6
:1046D000233400E0641C01E0641C00BF00E0641CA3
:1046E000AC42FFF617AE01201C4948711031A1F110
:1046F0000800FDF7DAF819488069401C17498861FD
:104700000020087570BD00000D520020B04C002044
:10471000A8020020BC4C0020AA020020DD4C002092
:10472000AE020020B3020020B8020020BB0200202D
:10473000E94C0020054D0020164D0020BD02002050
:10474000BF020020C2020020C4020020CC020020D0
:10475000D3020020274D002092530020804C0020DF
:104760000FB440F203220099914201D004B0704787
:104770000099A1F201209DF81D109DF81C2041EA2E
:10478000022100EB4012454B23F822109DF81F2018
:104790009DF81E1042EA012109B200EB401203EB22
:1047A000820291809DF821209DF8201042EA01218B
:1047B00000EE101AB8EEC00AF1EE040A20EE200A4C
:1047C000DFED370A80EE201ABDEEC10A10EE101A96
:1047D00009B200EB401203EB8202D18000EB4011E2
:1047E0001A4632F8211000EB401203EB8202528885
:1047F000891AB1F5805F0FDD00EB40111A4602EB1C
:104800008101B1F87810491E09B200EB401203EBA8
:104810008202A2F878101DE000EB40111F4A32F826
:10482000211000EB40121D4B03EB82025288891AC3
:1048300011F5805F0EDA00EB40111A4602EB8101A0
:10484000B1F87810491C09B200EB401203EB820268
:10485000A2F8781000EB4011104A32F8212000EB4A
:1048600040110E4B03EB8101B1F9781002EB41319D
:1048700000EE101AB8EEC00A00EB40111A4602EB27
:10488000810181ED1F0A00EB401132F8211000EB8D
:10489000401203EB8202518000BF67E7284A0020E4
:1048A000000080460FB40099B1F5017F01D004B03B
:1048B00070470099A1F201209DF81D109DF81C2061
:1048C00041EA022100EB4012404B23F822109DF8F0
:1048D0001F209DF81E1042EA012109B200EB401290
:1048E00003EB820291809DF821209DF8201042EA7E
:1048F000012109B200EB401203EB8202D1809DF846
:10490000221000EB401203EB8202117200EB401107
:104910001A4632F8211000EB401203EB8202528853
:10492000891AB1F5805F0FDD00EB40111A4602EBEA
:104930008101B1F87810491E09B200EB401203EB77
:104940008202A2F878101DE000EB40111F4A32F8F5
:10495000211000EB40121D4B03EB82025288891A92
:1049600011F5805F0EDA00EB40111A4602EB81016F
:10497000B1F87810491C09B200EB401203EB820237
:10498000A2F8781000EB4011104A32F8212000EB19
:1049900040110E4B03EB8101B1F9781002EB41316C
:1049A00000EE101AB8EEC00A00EB40111A4602EBF6
:1049B000810181ED1F0A00EB401132F8211000EB5C
:1049C000401203EB8202518000BF70E7284A0020AA
:1049D0000FB40099B1F5007F03D90099B1F5017FBB
:1049E00001D904B070470099A1F201209DF81D1073
:1049F0009DF81C2041EA022100EB4012114B23F8E4
:104A000022109DF81F209DF81E1042EA012109B2D4
:104A100000EB401203EB820291809DF821209DF86B
:104A2000201042EA012109B200EB401203EB82029E
:104A3000D1809DF8221000EB401203EB820211722C
:104A400000BFCEE7284A00202DE9FC4107460C466E
:104A500015461E46380A8DF80000F8B28DF80100A0
:104A6000200A8DF80200E0B28DF80300280A8DF8C4
:104A70000400E8B28DF80500300A8DF80600F0B2A7
:104A80008DF807006B464FF4007200210248FCF7D6
:104A90006DF8BDE8FC8100009807002010B50E48B5
:104AA0000E4908600720486000210C488160C16001
:104AB0004FF400310161C9004161002101760121FB
:104AC00041768176C176002101774177FDF731FA91
:104AD00008B1FCF7FCFC10BD006400409807002002
:104AE00010B50E480E4908600720486000210C48A8
:104AF0008160C1604FF400310161C9004161002152
:104B00000176012141768176C176002101774177D6
:104B1000FDF70FFA08B1FCF7DAFC10BD00680040A1
:104B2000C007002008B500BF0020009022480068A0
:104B300040F48000204908600846006800F48000C6
:104B4000009000BF00BF00BF002000900846006832
:104B500040F4001008600846006800F4001000905F
:104B600000BF00BF002211460C20FDF7D3FF0C2030
:104B7000FDF7C0FF002211461120FDF7CBFF1120E9
:104B8000FDF7B8FF002211463920FDF7C3FF392099
:104B9000FDF7B0FF002211463A20FDF7BBFF3A2097
:104BA000FDF7A8FF002211464520FDF7B3FF452081
:104BB000FDF7A0FF08BD00003038024000B5A3B0EB
:104BC00000222421202003F0BFFC2349086000229A
:104BD0002421202003F0B8FC204908601C22204931
:104BE0001CA8FBF790FB00211CA802F023FB1D4929
:104BF00008601C221A491C3115A8FBF784FB002110
:104C000015A802F017FB184908601C221449383116
:104C10000EA8FBF778FB00210EA802F00BFB13494E
:104C200008601C220E49543107A8FBF76CFB0021D9
:104C300007A802F0FFFA0E4908601C2208497031EB
:104C40006846FBF760FB0021684602F0F3FA094969
:104C5000086023B000BD00002001002024010020D6
:104C6000248E00082C010020300100203401002097
:104C7000380100203C01002000B587B0142102A8B3
:104C8000FBF75AFB00BF002001903248006840F05B
:104C90008000304908600846006800F080000190FC
:104CA00000BF00BF00BF002001900846006840F030
:104CB000010008600846006800F00100019000BF94
:104CC00000BF00BF002001900846006840F00200CD
:104CD00008600846006800F00200019000BF00BFB5
:104CE00000BF002001900846006840F008000860FE
:104CF0000846006800F00800019000BF00BF00BF38
:104D0000002001900846006840F004000860084652
:104D1000006800F00400019000BF00BF00BF002049
:104D200001900846006840F01000086008460068DE
:104D300000F01000019000BF00BF4FF440700290DF
:104D4000002003900120049002A90348FDF722FDF2
:104D500007B000BD303802400000024010B50548E1
:104D6000054908600846FEF717FB08B1FCF7AFFBE2
:104D700010BD000000080650E807002000B587B00D
:104D80000020039004900590069001900290144832
:104D90001449086053204860002112488160312185
:104DA000C1600021016180218161FEF785FB08B1AE
:104DB000FCF78DFB4FF48050039003A90948FEF7E0
:104DC000ECFB08B1FCF783FB00200190029001A9E5
:104DD0000448FEF717FB08B1FCF779FB07B000BDEC
:104DE00000040040F807002000B58BB0242102A881
:104DF000FBF7A2FA002000900190184818490860BB
:104E00000020486000211648816040F69F71C16013
:104E100000210161816103200290002003900120A4
:104E20000490002005900690079001200890002033
:104E300009900A9002A90A48FEF733FC08B1FCF772
:104E400046FB00200090019069460548FEF7DAFA1B
:104E500008B1FCF73CFB0BB000BD0000000C0040AB
:104E6000380800201CB50020009001900E480F4922
:104E700008605320486000210C48816040F2E7310F
:104E8000C16080218161FEF717FB08B1FCF71FFBB1
:104E900000200090019069460448FEF7B3FA08B17B
:104EA000FCF715FB1CBD0000001400407808002032
:104EB00010B50B480B4908604FF461204860002191
:104EC00008488160C16001610C214161002181615C
:104ED000C161FEF72DFE08B1FCF7F9FA10BD000024
:104EE000007C0040B808002010B50A480A49086054
:104EF0000A484860002108488160C16001610C21B6
:104F0000416100218161C161FEF712FE08B1FCF729
:104F1000DEFA10BD00100140F8080020A086010054
:104F200010B50B480B4908604FF4E1304860002190
:104F300008488160C16001610C21416100218161EB
:104F4000C161FEF7F5FD08B1FCF7C1FA10BD000024
:104F5000004800403809002010B50B480B49086094
:104F60004FF4E1304860002108488160C160016170
:104F70000C21416100218161C161FEF7D9FD08B1B9
:104F8000FCF7A5FA10BD00000014014078090020CC
:104F900000BFFEE77047000010B50024AA2221469A
:104FA000641C91484254FF222146641C4254F12261
:104FB0002146641C425422222146641C4254002093
:104FC0008A4908708A480188884802780078401C1D
:104FD000864B1870874840F8221014211846027832
:104FE0000078401C1870834840F8221080484068C0
:104FF00000EE100ADFED800A20EE200ABDEEC00AA6
:1050000010EE100A19460A780978491C1970794976
:1050100041F8220076480289184601780078401C41
:105020001870744840F821207148406800EE100A5A
:10503000DFED720A30EEC00ABDEEC00A10EE100AB3
:1050400019460A780978491C19706A4941F8220002
:105050006B4890ED170ABDEEC00A10EE100A194613
:105060000A780978491C1970624941F8220065489C
:105070008179184602780078401C18705D4840F825
:105080002210002019460870002208460178007896
:10509000401C18705C4820F811205C48008801B260
:1050A000184602780078401C1870574820F81210F3
:1050B0005748008801B2184602780078401C1870E2
:1050C000514820F812100020194608702FE0494876
:1050D0004649097810F821202046611CCCB242498B
:1050E0000A5444484149097800EB8100427820463F
:1050F000611CCCB23C490A543E483C49097800EB5B
:10510000810082782046611CCCB237490A54394864
:105110003649097800EB8100C2782046611CCCB288
:1051200031490A5431480078401C304908702F48F2
:1051300000780728CBDB00202C49087019E03248A2
:105140002A49097810F811202046611CCCB2264962
:105150000A542D482549097800EB41004278204641
:10516000611CCCB220490A5420480078401C1F49D9
:1051700008701E4800780328E1DB002025490870EC
:10518000254908702549087013E017482349097814
:10519000405C2049097808441E4908701E48007880
:1051A000097808441C4908701C480078401C1B49B9
:1051B00008700D48C078001D184909788842E4DC61
:1051C000144802782046611CCCB207490A541248A0
:1051D00002782046611CCCB203490A54224610488A
:1051E000FEF7A4FE10BD0000264900201102002099
:1051F000054D0020584900200024744900005C43FC
:105200000C5C0020484C0020120200207C00002092
:10521000980000200802002009020020100200204F
:105220007809002010B52DED088B7A48407A0328C4
:105230002CD179488068142822D9784840780128F0
:105240001ED177480068FBF760FA41EC1B0B9FED1D
:10525000750B53EC102BFBF793F941EC190B7348CA
:105260000068FBF752FA41EC1A0B53EC192BFBF7D1
:105270000FF941EC180BFBF773FA6C49086005E075
:105280006B4890ED070A694880ED000A01F0D2FCF6
:10529000664890ED000A6748D0ED000AB4EEE00AD7
:1052A000F1EE10FA0ADC614890ED000A6148D0ED99
:1052B000000AB4EE600AF1EE10FA05D15D4890EDF7
:1052C000000A5A4880ED000A584890ED000A5A48F2
:1052D000D0ED000AB4EEE00AF1EE10FA0AD353481A
:1052E00090ED000A5448D0ED000AB4EE600AF1EEE9
:1052F00010FA05D1504890ED000A4C4880ED000AA4
:105300004448407A022828D1494890ED070AF0EE37
:10531000400A464890ED000A484800F0EDF847483A
:1053200090ED110ABDEEC00A454880ED000A4048E4
:1053300090ED090AF0EE400A414890ED000AB8EEFF
:10534000C00A404800F0D8F83E4890ED110ABDEE82
:10535000C00A3D4880ED000A58E02F4880681428B4
:105360002CD92E484078012828D1314890ED070AE1
:10537000F0EE400A2D4890ED000A304800F0BCF8ED
:105380002E4890ED110ABDEEC00A2D4880ED000AAE
:10539000274890ED090AF0EE400A294890ED000AEE
:1053A000B8EEC00A274800F0A7F8264890ED110A89
:1053B000BDEEC00A244880ED000A27E01C4890EDAD
:1053C000070AF0EE400A194890ED000A1B4800F069
:1053D00093F81A4890ED110ABDEEC00A184880ED06
:1053E000000A134890ED090AF0EE400A144890EDC7
:1053F000000AB8EEC00A134800F07EF8114890ED9C
:10540000110ABDEEC00A104880ED000ABDEC088B01
:1054100010BD0000E0010020DC5D0020484C0020B1
:10542000FC0000200000000000002440700000206C
:10543000305E002084000020880000202C5A0020CC
:10544000780000208C5A0020940000200020B5EE47
:10545000C00AF1EE10FA02DDB0EE401A01E0B1EE42
:10546000401AB4EEE01AF1EE10FA00D801207047AD
:1054700080ED000AC0ED010A80ED021A9FED1D4A81
:1054800080ED034A9FED1B4A80ED044A90ED034AEC
:10549000D0ED044A34EE644A80ED054AC0ED061AA8
:1054A0009FED144A80ED094A9FED124A80ED0A4AA9
:1054B0009FED104A80ED0B4A9FED0E4A80ED0D4A9C
:1054C00080ED0F2AC0ED102A9FED0A4A80ED114AA7
:1054D00080ED123AC0ED133A90ED054A80ED144A82
:1054E00090ED144A80ED154A9FED024A80ED0E4A78
:1054F000704700000000000070B52DED028B0446DF
:10550000B0EE408AF0EE608A84ED038AC4ED048A2E
:1055100038EE680A84ED050A94ED000AD4ED050A18
:1055200020EE200A84ED090A94ED050AD4ED140A50
:1055300030EE600A84ED0B0A94ED050AD4ED140AEE
:1055400030EE600AD4ED020A20EE200A84ED0D0A46
:1055500094ED061AF0EE410A94ED051AB0EE410AF8
:10556000FFF774FF054643480560012D4ED194EDC9
:105570000A0AD4ED0F0AB4EEE00AF1EE10FA0FDDDC
:1055800094ED050AB5EEC00AF1EE10FA29D894EDB3
:105590000A0AD4ED050A30EE200A84ED0A0A20E05A
:1055A00094ED0A0AD4ED100AB4EEE00AF1EE10FA16
:1055B0000FD294ED050AB5EEC00AF1EE10FA10DB39
:1055C00094ED0A0AD4ED050A30EE200A84ED0A0AA9
:1055D00007E094ED0A0AD4ED050A30EE200A84EDC6
:1055E0000A0A94ED010AD4ED0A0A20EE200A84ED9D
:1055F000170A94ED090AD4ED170A30EE200AD4ED0B
:105600000D0A30EE200A84ED110A07E094ED090A34
:10561000D4ED0D0A30EE200A84ED110A94ED110A42
:10562000D4ED120AB4EEE00AF1EE10FA04DD94EDC6
:10563000120A84ED110A0CE094ED110AD4ED130A5C
:10564000B4EEE00AF1EE10FA03D294ED130A84ED01
:10565000110A94ED140A84ED150A94ED050A84EDFF
:10566000140A94ED0D0A84ED0E0A94ED110ABDECB6
:10567000028B70BD0403002010480089322802DA32
:1056800001200F4908700E480078012806D10B4808
:105690000089962802DD0020094908700848007832
:1056A000012805D19FED070A074880ED000A04E0B4
:1056B000B7EE000A044880ED000A7047054D00204F
:1056C000240000206666263F0C01002010B58848A3
:1056D0000068002802DD8648006802E0844800680F
:1056E000404200EE100AB8EEC00A8248D0ED000A2F
:1056F0009FED811A60EE810AB4EE600AF1EE10FAB5
:105700000AD090ED000ADFED7C0A20EE200ABDEE03
:10571000C00A774880ED000A64210020FCF7D4F825
:10572000764908607648B0F99001002803DD744896
:10573000B0F9900103E07248B0F99001404240F2A4
:10574000DC51884204DD6D488088401C6B498880AC
:105750006C488069B0F57A7F06DD00206749888053
:105760006949086069490870FFF786FF6848007852
:10577000F8B96348D0ED820A6648006847F23051B4
:10578000084400EE100AB8EEC00AF4EEC00AF1EECA
:1057900010FA0ED2574890ED000ADFED570A20EEBE
:1057A000200ABDEEC00A524880ED000A002053498D
:1057B000888059480078F8B95148D0ED820A574896
:1057C0000068A0F5EA40303800EE100AB8EEC00AD2
:1057D000F4EEC00AF1EE10FA0EDD464890ED000A34
:1057E000DFED4F0A20EE200ABDEEC00A404880EDF2
:1057F000000A00204149888040488088B0F5FA7F3F
:1058000016D13E4800680A280FD339480068404244
:10581000374908600020434908703C4908704248F5
:105820000088401C00B2404908800020334988802D
:105830002F480068002802DD2D48006802E02C484F
:105840000068404240F2DC5188421EDD2C48B0F92D
:105850009001002803DD2A48B0F9900103E02848B0
:10586000B0F99001404222490968002902DD20492F
:10587000096802E01E4909684942C839884204DDC6
:1058800021480068401C204908601F48006896288D
:105890002DDD1B48B0F99001002803DD1848B0F950
:1058A000900103E01648B0F99001404210490968A0
:1058B000002902DD0E49096802E00D4909684942E4
:1058C000A1F5FA61884204DA18480068401C1749BB
:1058D000086001200D49087014480068502806DD52
:1058E000002009490860114908600849087010BD86
:1058F0007C0000200C01002000A08C451C00002032
:10590000284A002020030020080000201801002061
:10591000B8000020C0000020B9000020BC0000201A
:1059200000A08CC538000020E40000200C000020FE
:1059300008B503F09BF8009000BF00BF4548006821
:10594000401C4449086001F0D3F8434890ED0F0A29
:10595000DFED420AB4EEE00AF1EE10FA06D8404854
:105960000068002802DA00203D4908603A4890EDBE
:105970000F0ADFED3C0AB4EEE00AF1EE10FA06DBA6
:1059800037480068002802DD0020354908603648A5
:10599000007A022802D03448007A50B900203049F9
:1059A000086032490860324890ED030A314880EDC2
:1059B000000A00231A462A48008801B22B480088B2
:1059C00000B2FBF75BFE2C492C48FBF74BFF02F0C3
:1059D000C7F802F081F8FBF7FDF802F005F801F0D6
:1059E000F5F827480078012802D1002025490860F1
:1059F00025480078012802D1002022490860234868
:105A00000078012802D100201E4908601648007A5B
:105A1000022802D01448007A40B9002019490860D1
:105A20001B4908601B4908601B490860154800882D
:105A300003B21948008802B21548008801B215481F
:105A4000008800B2FFF700F80321684602F010FB5F
:105A500074E700005C0000209849002000F0C84571
:105A60009400002000D0DE45E001002090000020DE
:105A7000305E002064000020380800204003002031
:105A800018010020980000201101002010010020C2
:105A90009C000020A0000020A400002000BF0120E6
:105AA00001F0B7FBFBE7000010B500BF502080F30A
:105AB0001188BFF34F8FBFF36F8F00BF02F0DCFF81
:105AC00018B14FF080500449086000BF002080F3F7
:105AD000118800BF10BD000004ED00E000B593B0D8
