:020000040800F2
:100000009070002081020008D9450008253B0008B7
:10001000D5450008EB090008C9540008000000009D
:10002000000000000000000000000000C101000806
:10003000E9110008000000001D020008B149000895
:100040009B0200089B0200089B0200089B0200081C
:100050009B0200089B0200089B0200089B0200080C
:100060009B0200089B0200089B0200089B020008FC
:100070009B0200089B0200089B0200089B020008EC
:100080009B020008650E00089B0200089B02000806
:10009000450A00089B0200089B0200089B0200081A
:1000A0009B0200089B0200089B0200089B020008BC
:1000B0009B020008B54A00089B0200089B0200084A
:1000C0009B0200089B0200089B0200089B0200089C
:1000D0009B020008BD5200089B0200089B0200081A
:1000E0009B0200089B0200089B0200089B0200087C
:1000F0009B0200089B0200089B0200089B0200086C
:100100009B0200089B0200089B0200089B0200085B
:100110009B0200089B020008E94A0008F94A00080F
:100120009B020008750E0008850E00089B0200085F
:100130009B0200089B0200089B0200089B0200082B
:100140009D0B00089B0200089B0200089B02000810
:100150009B020008950E00089B020008D15200087F
:100160009B0200089B0200089B0200089B020008FB
:100170009B0200089B0200089B0200080000000090
:100180009B0200089B0200089B020008A54C000887
:100190009B0200089B0200089B0200089B020008CB
:1001A00000000000000000009B020008DFF80CD0F7
:1001B00000F0DEFB00480047096100089070002055
:1001C0002C4B19680868B0E8F04F80F30988BFF33A
:1001D0006F8F4FF0000080F311887047000000001F
:1001E00008480068006880F308884FF0000080F33A
:1001F000148862B661B6BFF34F8FBFF36F8F00DF15
:1002000000BF00BF08ED00E0DFF80C00016841F41A
:1002100070010160704700BF88ED00E0EFF30980D6
:10022000BFF36F8F134B1A681EF0100F08BF20ED3D
:10023000108A20E9F04F106009B44FF0500080F3AD
:100240001188BFF34F8FBFF36F8F07F0BDF84FF0EA
:10025000000080F3118809BC19680868B0E8F04F05
:100260001EF0100F08BFB0EC108A80F30988BFF3AE
:100270006F8F7047F0000020EFF30580704700009B
:100280000648804706480047FEE7FEE7FEE7FEE730
:10029000FEE7FEE7FEE7FEE7FEE7FEE7994A000815
:1002A000AD0100082DE9F05F0546002092469B460F
:1002B00088460646814640241BE02846414647467C
:1002C000224600F09EFA53465A46C01A914110D376
:1002D00011461846224600F085FA2D1A67EB0108F0
:1002E0004F4622460120002100F07CFA17EB00095E
:1002F0004E41201EA4F10104DFDC484631462A4667
:100300004346BDE8F09F40EA01039B0703D009E0A4
:1003100008C9121F08C0042AFAD203E011F8013BF1
:1003200000F8013B521EF9D27047D2B201E000F84A
:10033000012B491EFBD270470022F6E710B5134689
:100340000A4604461946FFF7F0FF204610BD421C3E
:1003500010F8011B0029FBD1801A7047034611F8E1
:10036000012B00F8012B002AF9D1184670472DE91E
:10037000FE4F804681EA0300C00F0C46009021F03A
:10038000004123F00045B8EB0200A94105D24046E8
:10039000214690461C460B46024623F0004010437F
:1003A00047D0270DC7F30A00C3F30A510290401A41
:1003B000019040286BDAC3F3130040F4801B0098CF
:1003C000924620B10023D2EB030A63EB0B0B01989A
:1003D0005946C0F14002504600F004FA06460D4668
:1003E00050465946019A00F01CFA10EB0800614192
:1003F000002487EA115284EAE7731A4340D0009A36
:1004000062B3019A012A4FEA075215DC001B61EB27
:1004100002014FF0004202EA0752CDE90042001CFF
:1004200041F5801132462B4600F053FA03B0BDE887
:10043000F08F40462146F9E7001B61EB0201001CEA
:1004400041F5801300185B412018A2F5001747EB17
:10045000030140EAD570B6196D4111E06D084FEA0D
:10046000360645EAC0754FEA0752001B61EB0201F0
:10047000001C41F5801149084FEA30000019514134
:1004800032462B4603B0BDE8F04F00F013BA009897
:10049000012240000023D0EB020263EBE0730098DE
:1004A00021464FEAE074B8EB000061EB0401E9E794
:1004B00083F000435BE781F0004158E72DE9FE4FF0
:1004C00081EA030404F0004421F0004100944FF05D
:1004D000000B23F0004350EA01045ED052EA03040B
:1004E0005BD0C3F30A54C1F30A552C44A4F2F3348D
:1004F0000194A0FB0254C1F3130141F48011C3F332
:10050000130343F4801301FB024400FB034E840AEF
:10051000970A44EA815447EA8357A4FB0768029587
:100520008D0A05FB07854FEA932C04FB0C54270525
:10053000029D4FEA065847EA1637B5EB08056EEB01
:10054000070C870E920E47EA811742EA8312A7FB37
:100550000201B6EB0B0164EB00042B0D43EA0C33F4
:100560005E1844EB1C50DA465146E7FB0201C5F326
:1005700013044FEA0B3343EA14534FEA0432019C4D
:1005800043EA0603A4F10C040294009CCDE900B4F4
:1005900000F09FF903B0BDE8F08F00200146F9E7B5
:1005A0002DE9F04D81EA030404F0004B21F00045F1
:1005B00014464FF0000A23F0004150EA050220D013
:1005C00054EA01021DD0C5F30A570246C5F31303CE
:1005D000C1F31300C1F30A5640F4801543F48013AD
:1005E000A7EB0608101BD64608F2FD3873EB050092
:1005F00002D308F1010801E092185B41B8F1000F45
:1006000003DA00200146BDE8F08D00204FF4801190
:10061000064684460EE0171B73EB050705D3121B35
:1006200063EB050306434CEA010C49084FEA30002E
:1006300092185B4150EA0107EDD152EA030012D053
:1006400082EA040083EA0501084305D0101BAB4190
:1006500006D20122002306E000224FF0004302E010
:100660006FF0010253101AEB06004CEB085110EB2F
:100670000A0041EB0B01BDE8F04D00F01BB90EB5CF
:10068000C10F80EAE0700844CA07002140F23343FA
:100690008DE80E000A460B4600F01BF903B000BDC2
:1006A0000EB540F2334102910021CDE900110A4616
:1006B0000B4600F00EF903B000BD70B5C1F30A524D
:1006C00001F000450024C1F3130140F2FF3341F46F
:1006D00080119A4201DA002070BD40F233439A4201
:1006E000A2F2334203DC524200F08BF800E090406B
:1006F0002C43F1D0404270BDC1F30A5210B5C1F392
:10070000130140F2FF3341F480119A4201DA0020D4
:1007100010BD40F233439A42A2F2334203DC52420C
:1007200000F06FF810BD904010BD00F0004230F0B6
:1007300000400AD0C10D01F56071C0F3160042EA15
:100740000151C2084007114370470020014670471D
:1007500030B5041E71F1000404DB4FF00044404248
:1007600064EB0101141E73F1000405DB1C464FF01D
:100770000043524263EB04038B4208BF824230BD08
:1007800001F0004330B421F0004150EA010206D0EC
:100790000A0DA2F56072C1F31301002A02DC30BC1D
:1007A00000207047440F44EAC104C100E01830BC87
:1007B00000EBC25000F047B830B50B4601460020B0
:1007C0002022012409E021FA02F59D4205D303FA13
:1007D00002F5491B04FA02F52844151EA2F1010294
:1007E000F1DC30BD202A04DB203A00FA02F10020BF
:1007F00070479140C2F1200320FA03F3194390405F
:100800007047202A04DB203A21FA02F000217047C9
:1008100021FA02F3D040C2F1200291400843194668
:100820007047202A06DBCB17203A41FA02F043EA50
:10083000E07306E041FA02F3D040C2F12002914099
:100840000843194670470029A8BF7047401C49005B
:1008500008BF20F00100704710B4B0FA80FC00FA25
:100860000CF050EA010404BF10BC704749B1CCF150
:10087000200421FA04F411FA0CF118BF01212143DC
:100880000843A3EB0C01CB1D4FEA00614FEA102097
:1008900042BF002010BC704700EBC3501044002939
:1008A000A4BF10BC7047401C490008BF20F00100E5
:1008B00010BC704710B5141E73F1000408DA401C18
:1008C00041F1000192185B411A4301D120F001006F
:1008D00010BD2DE9F04D92469B4611B1B1FA81F25F
:1008E00002E0B0FA80F220329046FFF77BFF044628
:1008F0000F4640EA0A0041EA0B0153465A460843B4
:1009000013D0114653EA010019D0C8F140025046F5
:10091000FFF777FF05460E46504659464246FFF719
:1009200061FF084305D0012004E020463946BDE8B8
:10093000F08D0020054346EAE0762C4337430A98C1
:100940006305E40AA0EB08000022FD0A44EA4754CC
:100950000A3002D500200146E9E701051019694176
:10096000DDE9084500196941BDE8F04DA2E7000046
:10097000064C074D06E0E06840F0010394E80700EC
:1009800098471034AC42F6D3FFF714FCEC80000813
:100990000C81000870B58C1810F8015B15F0070386
:1009A00001D110F8013B2A1106D110F8012B03E008
:1009B00010F8016B01F8016B5B1EF9D12B0705D410
:1009C0000023521E0DD401F8013BFAE710F8013B59
:1009D000CB1A921C03E013F8015B01F8015B521E75
:1009E000F9D5A142D8D3002070BD00BFFEE70000BA
:1009F00010B500F00FF8064801F0BDFA0448006891
:100A0000406940F0020002490968486110BD0000D9
:100A10009806002000B58BB000200A900690079041
:100A2000012008900020019002900390049005900E
:100A30000120099001A9024800F066FE0BB000BD3C
:100A40009806002010B504480068401C0249086060
:100A5000024800F0A9FF10BD0C00002098060020FD
:100A60008EB034480068401C3249086000BF3148ED
:100A70000068401C2F4908604FF0FF3205A92E483E
:100A8000006806F0B3FE0446012CF0D140F20521C7
:100A90000598884208D1142209A96846FFF733FC5B
:100AA00005A80FC800F0A2FC40F206210598884274
:100AB00008D1142209A96846FFF725FC05A80FC82C
:100AC00000F0BCFB0598B0F5017F08D1142209A9FC
:100AD0006846FFF718FC05A80FC803F029FA40F292
:100AE00001210598884208D1142209A96846FFF718
:100AF0000AFC05A80FC803F0B1FA40F202210598DC
:100B0000884208D1142209A96846FFF7FCFB05A812
:100B10000FC803F0A3FA40F2032105988842A6D13A
:100B2000142209A96846FFF7EEFB05A80FC803F0D9
:100B30005DF99CE718000020B800002010B500F017
:100B400011F8074801F017FA08B100BFFEE70448A2
:100B50000068406940F0020001490968486110BD21
:100B6000C006002000B58BB000200A9006900790C8
:100B700001200890002001900290039004900590BD
:100B80000120099001A9044800F0BEFD08B100BF92
:100B9000FEE70BB000BD0000C006002010B5024803
:100BA00000F002FF10BD0000C00600202DE9F84350
:100BB00081460E4615461F4600201549C860084666
:100BC0008660806810B90846056005E010488068B6
:100BD000042801D10E48456008200D490861002015
:100BE00008750846D0F81080002405E0395D0848F3
:100BF00018300155601CC4B24445F7D36B46044A13
:100C000018320349484600F0D3FCBDE8F8830000E1
:100C1000D847002010B52DED0C8B3148007A012803
:100C20002ED130480068FFF72AFD41EC190B2C4902
:100C3000B1F90600FFF723FD41EC1D0B9FED2A0BD8
:100C400053EC102BFFF73AFC41EC1C0B9FED280BEB
:100C500053EC102BFFF7A4FC41EC1B0B9FED260B74
:100C600053EC102BFFF72AFC41EC1A0B53EC192B19
:100C7000FFF724FC41EC180BFFF71FFD204908602B
:100C80002048B0F9900100EE100AB8EEC00AF0EE6C
:100C9000400A1B4890ED000AB8EEC00A1A4803F05B
:100CA00029FD194890ED110ABDEEC00A174880EDE4
:100CB000000A1748006917490968884203DD14488B
:100CC000006914490860124800691349096888429C
:100CD00003DA0F48006910490860BDEC0C8B10BDA9
:100CE0005801002050000020000000000000F03FEC
:100CF0000000000000A08440000000000000F0BFE1
:100D00004000002088480020804D00205C0000202A
:100D10003402002094000020980000208EB01A4871
:100D20000068401C1849086000BF4FF0FF3205A959
:100D30001648006806F05AFD0446012C1BD140F20B
:100D400095110598884208D1142209A96846FFF731
:100D5000DAFA05A80FC800F035F840F265110598D9
:100D6000884208D1142209A96846FFF7CCFA05A8E1
:100D70000FC800F04FF804F0F7FA03480068401C71
:100D800001490860D1E700001C000020BC000020E1
:100D900010B50246002004E012F8013B4340044C29
:100DA000E05C0B1EA1F10104A1B2F5D110BD000061
:100DB000A07F00080021024A1160516070470000C6
:100DC000180200200FB410B540F295110298884225
:100DD00002D010BC5DF814FB002004E009A9095CF6
:100DE000094A1154401C0828F8DB0849A1F1080001
:100DF00000F0CFFB06484068401C054948600020D1
:100E0000087200BFE5E70000240200202450002003
:100E10004C5000200FB410B540F265110298884282
:100E200002D010BC5DF814FB002004E009A9095CA5
:100E3000094A1154401C0828F8DB0849A1F10800B0
:100E400000F0A7FB06484068401C054948600020A8
:100E5000087200BFE5E700002C020020305000209F
:100E60005850002010B5024801F0D0F810BD000025
:100E70007808002010B5024801F0C8F810BD000045
:100E80003809002010B5024801F0C0F810BD00007C
:100E9000D808002010B5024801F0B8F810BD0000D5
:100EA000980900200146087810381823B0FBF3F2A7
:100EB0000848805CC865032A05D908686FF30900F3
:100EC000001D886503E008686FF309008865886D78
:100ED00070470000807F0008014600208A6A8B6905
:100EE000CBB932B1012A0DD0022A03D0032A10D186
:100EF0000EE000BFCB6A03F08073B3F1807F00D1B6
:100F0000012007E0CB6AB3F1C07F00D1012001E0EE
:100F100000E000BF34E08B69B3F5005F1AD132B155
:100F2000012A07D0022A03D0032A11D10AE000BF08
:100F300001200EE0CB6A03F08073B3F1807F00D113
:100F4000012006E0CB6AB3F1C07F00D1012000E0B0
:100F500000BF15E032B1012A05D0022A04D0032ACD
:100F60000CD103E000BF00BF012008E0CB6A03F012
:100F70008073B3F1807F00D1012000E000BF00BF8B
:100F8000704730B50468246824F4802405682C6018
:100F9000046863608468402C04D10468A26004681B
:100FA000E16003E00468A1600468E26030BD000015
:100FB00000B970470178427841EA0221C1F30A0181
:100FC0005B4A11804178C910827841EA4211C1F32D
:100FD0000A01574A518081788911C27841EA820119
:100FE000027941EA8221C1F30A01514A91800179D3
:100FF0004910427941EAC211C1F30A014C4AD18039
:1010000041790911890811724179C1F301115172B5
:101010008179C27941EA022109B2454A9181017A76
:10102000427A41EA02210AB24149CA81817AC27AEE
:1010300041EA02210AB23E490A82027B8A74427B5B
:10104000CA74817BC27B41EA0221394A9182017CC8
:10105000427C41EA0221C1F30A01354A518111461D
:10106000C98A491CD18211460988A1F5806109B25B
:10107000118011464988A1F5806109B2518011465D
:101080008988A1F5806109B291801146C988A1F5CE
:10109000806109B2D18011464989A1F5806109B208
:1010A00051811146B1F90010142907DC1146B1F93C
:1010B000001011F1140F01DB002111801C49B1F95E
:1010C0000210142908DC1A49B1F9021011F1140FA9
:1010D00002DB0021164A51801549B1F90410142988
:1010E00008DC1349B1F9041011F1140F02DB0021DF
:1010F0000F4A91800E49B1F90610142908DC0C49F9
:10110000B1F9061011F1140F02DB0021084AD18059
:101110000749B1F90A10142908DC0549B1F90A1088
:1011200011F1140F02DB0021014A518100BF40E799
:101130005801002038B504462068006800F010000F
:1011400010282CD12068C06800F0100038B300BF10
:10115000002000902068006800902068406800909F
:1011600000BF00BF606B0068006820F00100616B89
:1011700009680860606B00684068042803D108486B
:10118000C169084888471620616B09684860606B30
:101190000068006840F00100616B0968086038BDB4
:1011A000580100207047002000BF0B480068401C19
:1011B000094908600948407A032808D1084806F020
:1011C00011F84FF4C8720649064802F05BFC14207F
:1011D00004F0D3FFE9E700002000002058010020C0
:1011E00008050020380800207047704710B52DED25
:1011F000068B04462046FFF753FA41EC1A0B53ECDA
:101200001A2B9FED0A0B51EC100BFFF7C9F941ECBB
:10121000190B9FED080B53EC102BFFF74FF941EC26
:10122000180BFFF769FABDEC068B10BD000000003B
:101230000000F03F0000000000408F400FB410B5E8
:1012400040F206210298884202D010BC5DF814FBDF
:101250000298A0F2052402A8407F9DF8241040EADD
:10126000012004EBC4014A4A22F8210002A8C17FF0
:10127000807F41EA002000B204EBC40102EB81014F
:10128000488004EBC400114601EB8000B0F9020075
:1012900000EE100AB8EEC00A04EBC40001EB8000B7
:1012A00080ED010A9DF829109DF8280041EA0020F0
:1012B00000B204EBC40102EB810108819DF82A0011
:1012C00004EBC40102EB8101887204EBC4001146F7
:1012D00031F8200004EBC40102EB8101B1F91210D6
:1012E000401A10F5E15F0BDA04EBC400114601EB84
:1012F00080004069401C04EBC40102EB810148619D
:1013000004EBC400224901EB8000B0F9120004EBA9
:10131000C4011F4A32F82110401A10F5E15F0BDAC0
:1013200004EBC400114601EB80004069401E04EB51
:10133000C40102EB8101486104EBC400144931F897
:10134000200004EBC401124A02EB810149694FF409
:10135000005202FB010000EE100AB8EEC00A04EBD6
:10136000C4000B4901EB800080ED060A04EBC400C9
:1013700031F8200000B204EBC401054A02EB810100
:1013800048820449A1F1080000F003F900BF5CE7BE
:10139000F8470020485000202DE9FC4107460C4644
:1013A00015461E46380A8DF80000F8B28DF8010087
:1013B000200A8DF80200E0B28DF80300280A8DF8AB
:1013C0000400E8B28DF80500300A8DF80600F0B28E
:1013D0008DF807006B4640F2FF1200210248FFF72C
:1013E000E5FBBDE8FC810000980600200FB410B5B5
:1013F00040F205210298884202D010BC5DF814FB2F
:101400000298A0F2052402A8407F9DF8241040EA2B
:10141000012004EBC4014A4A22F8210002A8C17F3E
:10142000807F41EA002000B204EBC40102EB81019D
:10143000488004EBC400114601EB8000B0F90200C3
:1014400000EE100AB8EEC00A04EBC40001EB800005
:1014500080ED010A9DF829109DF8280041EA00203E
:1014600000B204EBC40102EB810108819DF82A005F
:1014700004EBC40102EB8101887204EBC400114645
:1014800031F8200004EBC40102EB8101B1F9121024
:10149000401A2C4988420BDA04EBC400114601EBD8
:1014A00080004069401C04EBC40102EB81014861EB
:1014B00004EBC400224901EB8000B0F9120004EBF8
:1014C000C4011F4A32F82110401A1E4988420BDA23
:1014D00004EBC400114601EB80004069401E04EBA0
:1014E000C40102EB8101486104EBC400144931F8E6
:1014F000200004EBC401124A02EB810149694FF458
:10150000005202FB010000EE100AB8EEC00A04EB24
:10151000C4000B4901EB800080ED060A04EBC40017
:1015200031F8200000B204EBC401054A02EB81014E
:1015300048820549A1F1080000F02BF800BF5CE7E4
:10154000F84700209CE6FFFF3C5000200A68526AE2
:1015500012B20280B0F90020B0F90830D21A12F5A8
:10156000616F02DAC268521CC260B0F90820B0F99B
:101570000030D21A12F5616F02DAC268521EC260E0
:10158000B0F90030C26803EB0232026102880281C6
:10159000704770B504460D4606F0C2FA2060D4E9E3
:1015A0000012881AFFF722FE28602068606070BD74
:1015B000F0B504460D461E4694F8207020688368F6
:1015C000A86800B900E000BF012F01D0022F7CD134
:1015D00003F0806030B903F0006018B903F0805068
:1015E000002873D0C3F30161022905D9606A40F471
:1015F000000060620120F0BD012088403060A868D2
:1016000060B9B5F800C0E86840EA4C5C206800F5B5
:10161000C07000EB0110C0F800C00FE0D5E901C0B8
:1016200040EACC00D5F80CC040EA0C00D4F800C069
:101630000CF5C07C0CEB011CCCF80000D5F810C0F8
:10164000206800F5C07000EB0110C0F804C0287DD0
:1016500001280ED1206800F5C07000EB0110406831
:1016600040F4807C206800F5C07000EB0110C0F8E9
:1016700004C0D079000692F806C040EA0C4092F807
:1016800005C040EA0C2C10794CEA000C206800F5EB
:10169000C07000EB0110C0F80CC0D078000692F8C2
:1016A00002C040EA0C4092F801C040EA0C2092F8D7
:1016B00000C040EA0C00D4F800C00CF5C07C0CEB74
:1016C000011CCCF80800206801E016E00FE000F5EE
:1016D000C07000EB0110006840F0010C206800F5BC
:1016E000C07000EB0110C0F800C0002083E7606A02
:1016F00040F40010606201207DE7606A40F48020C1
:101700006062012077E70000F0B504460A462168D0
:1017100094F82050012D01D0022D7ED1424901F5CF
:101720000071086840F001000860086820F47C50EF
:1017300008600868566A40EA06200860107D00F0DC
:101740001F06012000FA06F3C8699843C861A1F595
:101750000071D069C8B9D1F80C029843C1F80C02E5
:10176000908880B2968940EA064601F51070576964
:1017700040F83760108880B2168940EA064601F5C5
:101780001070576900EBC7004660D069012819D175
:10179000D1F80C021843C1F80C02908880B2168868
:1017A00040EA064601F51070576940F837609089A5
:1017B00080B2168940EA064601F51070576900EBC1
:1017C000C7004660906928B9D1F804029843C1F86F
:1017D000040204E0D1F804021843C1F804021069BD
:1017E00028B9D1F814029843C1F8140204E0D1F8E2
:1017F00014021843C1F81402106A012804D1D1F868
:101800001C021843C1F81C02D1F8000220F00100AC
:10181000C1F800020020F0BDFFE7606A40F48020BC
:1018200060620120F7E7000000640040704770B577
:10183000044694F82050012D01D0022D7DD151B9DC
:101840002068C06800F0030080B9606A40F40010AE
:101850006062012070BD2068006900F0030028B9B3
:10186000606A40F4001060620120F3E7206800F530
:10187000D87000EB0110006800F0040090609068E0
:1018800040B9206800F5D87000EB01100068400DE9
:10189000106007E0206800F5D87000EB01100068C8
:1018A000C0085060206800F5D87000EB0110006897
:1018B00000F00200D060206800F5D87000EB011045
:1018C000406800F00F001061206800F5D87000EB50
:1018D0000110406800F47F40000A9061206800F524
:1018E000D87000EB01104068000C5061206800F5D2
:1018F000D87000EB011080681870206800F5D8706F
:1019000000EB0110806800F47F40000A58702068E6
:1019100000F5D87000EB0110806800F47F00000C27
:101920009870206800F5D87000EB01108068000EF8
:10193000D870206800F5D87000E02FE000EB0110AF
:10194000C0681871206800F5D87000EB0110C068FD
:1019500000F47F40000A5871206800F5D87000EB51
:101960000110C06800F47F00000C9871206800F539
:10197000D87000EB0110C068000ED87131B9206832
:10198000C06840F020002668F06005E0206800692B
:1019900040F020002668306100205BE7606A40F478
:1019A00080206062012055E72DE9F05F04460025A4
:1019B000206846692068D0F804902068876820680D
:1019C000D0F80CA02068D0F810B02068D0F81880AB
:1019D00006F00100002855D007F00100C0B1012039
:1019E0002168886007F0020018B1204600F0F3FA81
:1019F0000EE007F0040010B145F4006508E007F0C0
:101A0000080010B145F4805502E0204600F0E2FAEB
:101A100007F48070C8B14FF480702168886007F4C3
:101A2000007018B1204600F0D8FA0EE007F480608C
:101A300010B145F4005508E007F4006010B145F41A
:101A4000804502E0204600F0C7FA07F48030C8B1B4
:101A50004FF480302168886007F4003018B12046C8
:101A600000F0BDFA0EE007F4802010B145F4004507
:101A700008E007F4002010B145F4803502E020466C
:101A800000F0ACFA06F0080038B10AF0100020B1FE
:101A900045F4007510202168C86006F0040040B1CC
:101AA0000AF0080028B108202168C860204600F02C
:101AB0000FFA06F0020038B12068C06800F0030099
:101AC00010B1204600F006FA06F0400038B10BF0E5
:101AD000100020B145F4806510202168086106F0EF
:101AE000200040B10BF0080028B1082021680861EF
:101AF000204600F03DFA06F0100038B12068006979
:101B000000F0030010B1204600F033FA06F4003074
:101B100040B109F0100028B110202168486020462B
:101B200000F028FA06F4803040B109F0080028B12E
:101B3000082021684860204600F052FA06F4004070
:101B400088B309F0040078B306F4807020B108F07F
:101B5000010008B145F0010506F4007020B108F05D
:101B6000020008B145F0020506F4806020B108F0DB
:101B7000040008B145F0040506F40060A0B108F0C7
:101B8000700088B108F07000402817D006DC1028DB
:101B90000BD020280CD0302819D10CE0502810D0C0
:101BA000602814D110E01DE019E045F008050FE0B1
:101BB00045F010050CE045F0200509E045F0400532
:101BC00006E045F0800503E045F4807500E000BFC5
:101BD00000BF2068806920F07000216888610420BF
:101BE000216848602DB1606A284360622046FFF793
:101BF0001DFEBDE8F09F70B504460CB9012070BD14
:101C000094F8200010B9204600F0B0F82068006871
:101C100020F002002168086000F02CFD05460DE070
:101C200000F028FD401B0A2808D9606A40F4003003
:101C30006062052084F820000120E0E72068406809
:101C400000F002000028EBD12068006840F001009D
:101C50002168086000F00EFD05460DE000F00AFD69
:101C6000401B0A2808D9606A40F4003060620520F1
:101C700084F820000120C2E72068406800F00100DD
:101C80000028EBD0207E012806D12068006840F0B3
:101C900080002168086005E02068006820F080006E
:101CA00021680860607E012806D12068006840F045
:101CB00040002168086005E02068006820F04000CE
:101CC00021680860A07E012806D12068006840F0E5
:101CD00020002168086005E02068006820F02000EE
:101CE00021680860E07E012806D12068006820F0A5
:101CF00010002168086005E02068006840F01000CE
:101D000021680860207F012806D12068006840F023
:101D100008002168086005E02068006820F00800DD
:101D200021680860607F012806D12068006840F0C3
:101D300004002168086005E02068006820F00400C5
:101D400021680860D4E902010843216908436169F8
:101D500008436168491E08432168C8610020606229
:101D6000012084F82000002049E7000010B586B06B
:101D70000446142101A8FEF7DFFA4F492068884283
:101D800041D14E480068401C4C4908600846006834
:101D900001280FD100BF002000904948006840F0A2
:101DA0000070474908600846006800F00070009025
:101DB00000BF00BF00BF00200090414810380068FD
:101DC00040F008003E49103908600846006800F0FD
:101DD0000800009000BF00BF032001900220029085
:101DE00000200390032004900920059001A93548A4
:101DF00000F032FB00220621142000F0E5FC142044
:101E000000F0D2FC55E030492068884251D100BF33
:101E1000002000902A48006840F08060284908604F
:101E20000846006800F08060009000BF00BF2348B3
:101E30000068401C214908600846006801280FD14D
:101E400000BF002000901E48006840F000701C4950
:101E500008600846006800F00070009000BF00BFF6
:101E600000BF0020009016481038006840F00200C3
:101E70001349103908600846006800F0020000901D
:101E800000BF00BF4FF4405001900220029000209C
:101E90000390032004900920059001A90B4800F04D
:101EA000DBFA00220621402000F08EFC402000F0EA
:101EB0007BFC06B010BD000000640040DC00002088
:101EC00040380240000C024000680040000402401C
:101ED000704700001CB504461E48844212D11E48BB
:101EE000006878B11D4BA3F11C0200211948FFF7CF
:101EF0009EFC002301AA19491C391748006805F007
:101F0000F9FB00BF019838B14FF0805014490860C8
:101F1000BFF34F8FBFF36F8F124884420ED1124B25
:101F2000A3F11C020021FFF782FC00236A460E4940
:101F30001C390E48006805F0DDFB00BF009838B181
:101F40004FF0805006490860BFF34F8FBFF36F8F8B
:101F50001CBD000098060020B8000020140A0020D4
:101F600004ED00E0C0060020380A0020BC0000207C
:101F700070477047704770B5044694F820000128F8
:101F800022D1022084F820002068006820F001009F
:101F90002168086000F06EFB05460DE000F06AFB6A
:101FA000401B0A2808D9606A40F4003060620520AE
:101FB00084F82000012070BD2068406800F0010016
:101FC0000028EBD16062F6E7606A40F400206062AE
:101FD0000120F0E7704770477047704770477047BF
:101FE0007047014691F83500022803D080204865EB
:101FF00001207047052081F835000868006820F04E
:1020000001000A6810600020F3E70000F8B50446FC
:10201000002000908C4800684FF41651B0FBF1F797
:10202000A56D2E6894F85C1008208840304098B167
:102030002068006800F0040070B12068006820F09B
:1020400004002168086094F85C1008208840A860AB
:10205000606D40F00100606594F85C1001208840DC
:10206000304068B12068406900F0800040B194F8C9
:102070005C1001208840A860606D40F0020060653F
:1020800094F85C1004208840304068B120680068F3
:1020900000F0020040B194F85C1004208840A86071
:1020A000606D40F00400606594F85C10102088407A
:1020B000304078B32068006800F0080050B394F80E
:1020C0005C1010208840A8602068006800F4802020
:1020D00080B12068006800F4002028B9206CC8B1E5
:1020E0002046216C884715E0A06C98B12046A16C71
:1020F00088470FE02068006800F4807028B92068E5
:10210000006820F0080021680860206C10B12046AB
:10211000216C884794F85C102020884030400028CB
:1021200065D02068006800F0100000285FD094F8A7
:102130005C1020208840A86094F83500052828D13C
:102140002068006820F01600216808602068406957
:1021500020F0800021684861206C08B9A06C28B18B
:102160002068006820F008002168086094F85C107E
:102170003F208840A86000BF002084F8340000BFE2
:10218000012084F83500206D10B12046216D88476C
:10219000F8BD2068006800F4802080B120680068E5
:1021A00000F4002028B9606C10B12046616C8847AB
:1021B0001DE0E06BD8B12046E16B884717E020684E
:1021C000006800F4807068B92068006820F0100092
:1021D0002168086000BF002084F8340000BF01209F
:1021E00084F83500E06B10B12046E16B8847606DE4
:1021F00038B3606D00F00100F0B1052084F83500BF
:102200002068006820F001002168086000BF009885
:10221000401C0090B84200D905E02068006800F03A
:1022200001000028F3D100BF00BF002084F8340073
:1022300000BF012084F83500E06C10B12046E16C4D
:10224000884700BFA4E70000EC0000202DE9F04122
:102250000446002500F00EFA074614B90120BDE837
:10226000F081606A00B100BF00BF002084F8340034
:1022700000BF022084F835002068006820F00100CB
:10228000216808600AE000F0F5F9C01B052805D9AF
:1022900020206065032084F83500E0E720680068AE
:1022A00000F001000028EED12068056821480540B3
:1022B000D4E901010843E1680843216908436169E1
:1022C0000843A1690843E1690843216A08430543BB
:1022D000606A042803D1D4E90B0108430543206850
:1022E00005602068456925F00705606A0543606A56
:1022F00004280DD1A06A0543E06A48B12046FEF7E4
:10230000EBFD28B140206065012084F83500A6E788
:10231000206845612046FEF7C5FD064694F85C102E
:102320003F208840B06000206065012084F83500BF
:10233000002094E73F8010F02DE9F04104460D465F
:1023400016461F464FF0000800BF94F834000128DD
:1023500002D10220BDE8F081012084F8340000BFE2
:1023600094F83500012811D1022084F835000020AE
:1023700060653B46324629462046FEF702FE20684D
:10238000006840F001002168086006E000BF0020FE
:1023900084F8340000BF4FF002084046DAE72DE928
:1023A000F04704460D4616461F464FF00008D4F885
:1023B000589000BF94F83400012802D10220BDE8F3
:1023C000F087012084F8340000BF94F8350001281C
:1023D00025D1022084F83500002060653B46324656
:1023E00029462046FEF7CDFD94F85C103F2088403A
:1023F000C9F808002068006840F0160021680860ED
:10240000206C28B12068006840F00800216808604E
:102410002068006840F001002168086006E000BF05
:10242000002084F8340000BF4FF002084046C6E7A1
:1024300070B5044600F01EF906462546681C10B12A
:1024400004480078054400BF00F014F9801BA8423E
:10245000FAD370BDE8000020F8B502460B4600250F
:10246000002400200021E6E0012606FA01F51E689E
:1024700006EA0504AC4273D15E68012E08D05E689E
:10248000022E05D05E68112E02D05E68122E13D186
:1024900090684F000326BE40B0434F00DE68BE4048
:1024A00030439060506801268E40B0431E79C6F3D9
:1024B00000168E4030435060D0684F000326BE4067
:1024C000B0434F009E68BE403043D0605E68022E2D
:1024D00002D05E68122E13D1CF0802F1200656F802
:1024E00027004E07F70E0F26BE40B0434F07FF0EE2
:1024F0001E69BE403043CF0802F1200646F827008F
:1025000010684F000326BE40B0431E7906F0030654
:102510004F00BE40304310605E6806F08056B6F152
:10252000805FA8D100BF00260096454E366846F46D
:102530008046434F3E603E46366806F4804600962D
:1025400000BF00BF3F4E8F0856F827008E07370F99
:102550000F26BE40B0433C4EB24202D100262EE0D0
:1025600068E03A4EB24201D1012628E0384EB2422C
:1025700001D1022623E0374EB24201D103261EE0EC
:10258000354EB24201D1042619E0344EB24201D197
:10259000052614E0324EB24201D106260FE0314E3C
:1025A000B24201D107260AE02F4EB24201D10826DD
:1025B00005E02E4EB24201D1092600E00A268F071F
:1025C0003F0FBE4030431F4E8F0846F82700284E6D
:1025D0003068A0435E6806F48036B6F5803F00D1CF
:1025E0002043234E3060361D3068A0435E6806F4F9
:1025F0000036B6F5003F00D120431D4E361D306039
:10260000361D3068A0435E6806F48016B6F5801F5C
:1026100000D12043164E08363060361D3068A04386
:102620005E6806F40016B6F5001F00D12043104E78
:102630000C363060491C1029FFF416AFF8BD0000BD
:1026400044380240083801400000024000040240C3
:1026500000080240000C024000100240001402403A
:1026600000180240001C02400020024000240240EA
:10267000003C01400148006870470000E000002075
:102680000348006803490978084401490860704715
:10269000E0000020E800002010B50D48006840F47C
:1026A00000700B4908600846006840F480600860CC
:1026B0000846006840F480700860032000F0C2F80B
:1026C000002000F007F800F04BF8002010BD0000DB
:1026D000003C024070B588B0044600250026002268
:1026E0002146362000F070F8362000F05DF800BF7B
:1026F000002001901648006840F01000144908605E
:102700000846006800F01000019000BF00BF02A959
:1027100003A800F06DF900F093F945000D48B5FBF2
:10272000F0F0461E0C480D49086040F2E7310B48B6
:10273000C160466000210161816000F0CDFC20B9DC
:10274000064800F025FD08B070BD0120FBE7000041
:102750004038024040420F0000100040400A002074
:1027600008B500BF002000900E48006840F480408B
:102770000C4908600846006800F48040009000BFE3
:1027800000BF00BF00200090081F006840F080508C
:10279000091F08600846006800F08050009000BFE4
:1027A00000BF08BD4438024001460846002809DB46
:1027B00000F01F0301229A4043099B0003F1E0232C
:1027C000C3F8002100BF70472DE9F05F80460D4639
:1027D0001646002702F0E2FF074639462A463346EE
:1027E00001F00700C0F1070ABAF1040F02D94FF057
:1027F000040A01E0C0F1070AD14600F1040ABAF167
:10280000070F02D24FF0000A01E0A0F1030AD446FC
:102810004FF0010A0AFA09FAAAF1010A0AEA020AC1
:102820000AFA0CFA4FF0010B0BFA0CFBABF1010B9F
:102830000BEA030B4AEA0B042146404602F0B6FFBE
:10284000BDE8F09F00BF00F00702064B19684FF685
:10285000FF031940044B0B4343EA0221014B19606B
:1028600000BF70470CED00E00000FA0570B50446AB
:102870000D460CB9012070BD5848006800F00F00EB
:10288000A84209D255490D700846006800F00F00B3
:10289000A84201D00120EEE7207800F002000228D3
:1028A0001DD1207800F00400042805D14C480068B0
:1028B00040F4E0504A490860207800F008000828F9
:1028C00005D14748006840F46040454908604448E5
:1028D000006820F0F000A1680843414908602078B2
:1028E00000F00100A8B36068012807D13C4808380F
:1028F0000068C0F34040B8B90120BCE76068022816
:1029000002D06068032807D1354808380068C0F352
:10291000406048B90120AEE7314808380068C0F38C
:10292000400008B90120A6E72D48006820F0030008
:10293000616808432A490860FFF79CFE064609E0E3
:10294000FFF798FE801B41F28831884202D90320AC
:1029500091E707E02248006800F00C006168B0EBE6
:10296000810FEDD11D48006800F00F00A84209D981
:102970001A490D700846006800F00F00A84201D007
:10298000012078E7207800F00400042807D11448DB
:10299000006820F4E050E16808431149086020789D
:1029A00000F00800082808D10D48006820F46040B5
:1029B000216940EAC1000A49086000F061F808494D
:1029C0000968C1F30311074A515CC8400649086011
:1029D00006480068FFF77EFE00204CE7003C0240FE
:1029E00008380240887F0008EC000020E400002046
:1029F0000F2202600D4A126802F0030242600B4A85
:102A0000126802F0F0028260084A126802F4E05292
:102A1000C260064A126802F46042D2080261044AA7
:102A2000126802F00F020A60704700000838024086
:102A3000003C02400148006870470000EC000020A4
:102A400000B5FFF7F7FF04490968C1F38221034A83
:102A5000515CC84000BD000008380240987F000863
:102A600000B5FFF7E7FF04490968C1F34231034AA3
:102A7000515CC84000BD000008380240987F000843
:102A80002DE9F047002400250026A14625480068CE
:102A900000F00C0020B1042805D008283AD105E048
:102AA000DFF8849039E0DFF8849036E01D48001F9D
:102AB000006800F03F041B48001F006800F480001D
:102AC00078B11A481749091F0968C1F38811A0FB9A
:102AD00001700146224600233846FDF7E3FB054618
:102AE0000EE011480F49091F0968C1F38811A0FBC6
:102AF00001700146224600233846FDF7D3FB054608
:102B00000848001F0068C0F30140401C4600B5FBA8
:102B1000F6F902E0DFF8109000BF00BF4846BDE8BC
:102B2000F0870000083802400024F400001BB700C2
:102B3000F8B504460CB90120F8BD207800F001007A
:102B4000002874D0F948006800F00C0004280DD06B
:102B5000F648006800F00C00082813D1F348001F65
:102B6000006800F48000B0F5800F0BD1EF48083802
:102B70000068C0F34040002859D06068002856D152
:102B80000120D9E700BF6068B0F5803F08D1E74871
:102B90000838006840F48030E449083908601EE0D5
:102BA0006068B0F5A02F0DD1E0480838006840F407
:102BB0008020DE49083908600846006840F480300B
:102BC00008600CE0D9480838006820F48030D74904
:102BD000083908600846006820F48020086000BFBB
:102BE000606890B1FFF746FD054606E0FFF742FD3D
:102BF000401B642801D903209EE7CC4808380068B0
:102C0000C0F340400028F1D011E0FFF733FD054646
:102C100006E0FFF72FFD401B642801D903208BE756
:102C2000C24808380068C0F340400028F1D120783D
:102C300000F0020002285FD1BC48006800F00C00E0
:102C400058B1BA48006800F00C0008281CD1B748F9
:102C5000001F006800F48000B0B9B448083800686C
:102C6000C0F3400020B1E068012801D0012063E7F3
:102C7000AE480838006820F0F800216940EAC10039
:102C8000AA490839086037E0E06800B30120A84984
:102C90000860FFF7EFFC054606E0FFF7EBFC401B82
:102CA000022801D9032047E7A04808380068C0F38C
:102CB00040000028F1D09D480838006820F0F80056
:102CC000216940EAC10099490839086014E00020F0
:102CD00097490860FFF7CEFC054606E0FFF7CAFCFF
:102CE000401B022801D9032026E7904808380068D5
:102CF000C0F340000028F1D1207800F00800082837
:102D00002CD16069A8B101208A490860FFF7B2FCA4
:102D1000054606E0FFF7AEFC401B022801D9032060
:102D20000AE782486C300068C0F340000028F1D008
:102D300014E000207F490860FFF79CFC054606E090
:102D4000FFF798FC401B022801D90320F4E67748DE
:102D50006C300068C0F340000028F1D1207800F00A
:102D60000400042870D1002770483830006800F053
:102D7000805090B900BF002000906C483830006847
:102D800040F080506949383108600846006800F01A
:102D90008050009000BF00BF01276748006800F422
:102DA0008070B0B96448006840F48070624908607F
:102DB000FFF760FC054606E0FFF75CFC401B0228BD
:102DC00001D90320B8E65C48006800F48070002850
:102DD000F2D000BFA068012808D1544868300068CC
:102DE00040F001005149683108601DE0A0680528E5
:102DF0000DD14E486830006840F004004B496831FE
:102E000008600846006840F0010008600CE0474890
:102E10006830006820F001004449683108600846C5
:102E2000006820F00400086000BFA068A8B1FFF7A8
:102E300021FC054609E0FFF71DFC401B41F28831EB
:102E4000884202D9032077E626E0384868300068D7
:102E5000C0F340000028EED013E0FFF70BFC05465E
:102E600008E0FFF707FC401B41F28831884201D996
:102E7000032061E62D4868300068C0F34000002858
:102E8000EFD1012F07D129483830006820F0805059
:102E900026493831086000BFA069002845D0234882
:102EA000006800F00C0008285DD0A069022845D118
:102EB00000201F490866FFF7DDFB054606E0FFF727
:102EC000D9FB401B022801D9032035E617480838F2
:102ED0000068C0F340600028F1D1D4E9070108433D
:102EE000616A40EA81110122A06AC2EB500041EA06
:102EF00000412C20005D41EA00600C49091F086078
:102F000001200B490866FFF7B5FB054606E0FFF711
:102F1000B1FB401B022801D903200DE60348083805
:102F20000068C0F340600028F1D03FE0083802405C
:102F300000004742800E47420070004000201C49BC
:102F40000866FFF797FB054606E0FFF793FB401B7B
:102F5000022801D90320EFE516480068C0F340605D
:102F60000028F2D122E0A069012800D1E4E511484F
:102F7000001D066806F48001E069814214D106F064
:102F80003F01206A81420FD147F6C0703040616A2C
:102F9000884209D106F44031A06A814204D106F08A
:102FA0007061E06A814201D00120C5E50020C3E5DF
:102FB000000047420038024010B504460CB9012019
:102FC00010BD607920B900202071204600F00EF875
:102FD000022060712068006840F0040021680860E9
:102FE000012060710020A06000BFE9E708B50A4A2F
:102FF000016891420FD100BF002100910749096883
:1030000041F04001054A11601146096801F0400194
:10301000009100BF00BF08BD0008065034380240D0
:103020007047704730B502460B4600BF92F83C002F
:10303000012801D1022030BD012082F83C0000BFF0
:10304000022082F83D00106844681068816824F00E
:1030500070041868044310684460184D1068A84252
:103060001BD01068B0F1804F17D0154D1068A842E2
:1030700013D0144D1068A8420FD0134D1068A84209
:103080000BD0124D1068A84207D0114D1068A8420D
:1030900003D0104D1068A84205D121F08001586876
:1030A000014310688160012082F83D0000BF0020CC
:1030B00082F83C0000BF00BFBDE7000000000140F7
:1030C0000004004000080040000C004000040140E3
:1030D000004001400018004010B504460CB9012022
:1030E00010BD94F83D0028B9002084F83C0020462B
:1030F00000F00CF8022084F83D00211D206801F04A
:1031000019FD012084F83D000020E9E738B50446A8
:103110001C492068884218D100BF002000901A483E
:10312000006840F00200184908600846006800F096
:103130000200009000BF00BF002207211D20FFF702
:1031400043FB1D20FFF730FB1BE01049206888423D
:1031500017D100BF002000900B48006840F020000D
:10316000094908600846006800F02000009000BF90
:1031700000BF002206213720FFF726FB3720FFF78C
:1031800013FB38BD000400404038024000140040EA
:1031900001460868C06840F001000B68D860086804
:1031A000806800F00702062A05D00868006840F031
:1031B00001000B681860002070472DE9F0410446BB
:1031C0000D4600BF94F83C00012802D10220BDE862
:1031D000F081012084F83C0000BF022084F83D000B
:1031E0002068866826F0770626F47F462068866089
:1031F0002868502833D00CDC202850D004DC00286C
:103200004BD0102851D149E0302849D040284CD12A
:1032100039E060282DD0702807D0B0F5805F03D04A
:10322000B0F5005F41D10DE040E0D5E902136A68D6
:10323000206801F0FCFC2068866846F0770620686C
:10324000866033E0D5E902136A68206801F0EFFC7C
:103250002068806840F480402168886026E0EA6841
:103260006968206801F0F7FC5021206801F0EAFC51
:103270001CE0EA686968206801F000FD60212068B0
:1032800001F0E0FC12E0EA686968206801F0E3FC04
:103290004021206801F0D6FC08E000BF00BF00BF5D
:1032A0002968206801F0CEFC00E000BF00BF0120CB
:1032B00084F83D0000BF002084F83C0000BF00BF40
:1032C00085E72DE9F04104460D4614B90120BDE81B
:1032D000F08194F83D0028B9002084F83C00204695
:1032E00000F046F8022084F83D002068806844F22F
:1032F0000701884321688860211D206801F01AFCBD
:103300002068D0F80880206886692068076A2868E5
:1033100040EA080840F203308643A969A86840EAF9
:103320000120064340F60C4086434FF2F0008643EE
:10333000E969E86840EA0120064328690001296A32
:1033400040EA0130064327F0220727F08807696921
:10335000686840EA011007432068C0F808802068C8
:10336000866120680762012084F83D000020AEE7F6
:1033700010B586B00446142101A8FCF7DDFF1A49F8
:10338000206888422ED100BF0020009017480068B6
:1033900040F00800154908600846006800F0080081
:1033A000009000BF00BF00BF002000900F48103801
:1033B000006840F001000D491039086008460068B7
:1033C00000F00100009000BF00BF03200190022028
:1033D00002900020039004900220059001A9044867
:1033E000FFF73AF806B010BD000C0040403802402C
:1033F0000000024030B504460D4615B1042D0CD135
:1034000005E001220021206801F000FC10E001220B
:103410000421206801F0FAFB0AE001220021206863
:1034200001F0F4FB01220421206801F0EFFB00BF52
:1034300000BF2068006840F001002168086000209B
:1034400030BD704710B5044620680069C0F34000E5
:10345000D8B12068C068C0F34000B0B16FF002007E
:1034600021680861012020772068806900F003004E
:1034700018B12046FFF7E5FF05E0204600F0ADF863
:10348000204600F0ABF80020207720680069C0F3E8
:103490008000D8B12068C068C0F38000B0B16FF080
:1034A000040021680861022020772068806900F408
:1034B000407018B12046FFF7C4FF05E0204600F039
:1034C0008CF8204600F08AF80020207720680069F8
:1034D000C0F3C000D8B12068C068C0F3C000B0B16C
:1034E0006FF0080021680861042020772068C06917
:1034F00000F0030018B12046FFF7A3FF05E02046C7
:1035000000F06BF8204600F069F800202077206872
:103510000069C0F30010D8B12068C068C0F3001083
:10352000B0B16FF010002168086108202077206892
:10353000C06900F4407018B12046FFF782FF05E033
:10354000204600F04AF8204600F048F80020207796
:103550002068006900F0010058B12068C06800F0E0
:10356000010030B16FF0010021680861204600F0D1
:1035700037F820680069C0F3C01058B12068C068EF
:10358000C0F3C01030B16FF08000216808612046A0
:10359000FFF746FD20680069C0F3801058B120682D
:1035A000C068C0F3801030B16FF04000216808613E
:1035B000204600F021F820680069C0F3401058B19F
:1035C0002068C068C0F3401030B16FF0200021685F
:1035D00008612046FFF725FD10BD704770470000C9
:1035E00010B5044603492068884201D1FFF748F826
:1035F00010BD000000100040704770472DE9F047F3
:103600000446206805682068C668206847694FF04E
:103610000008C14605F00F08B8F1000F0AD105F007
:10362000200038B106F0200020B1204601F0CAFB8E
:10363000BDE8F087B8F1000F72D007F0010018B9AB
:1036400006F4907000286BD005F0010030B106F44C
:10365000807018B1E06B40F00100E06305F00400F9
:1036600030B107F0010018B1E06B40F00200E063F8
:1036700005F0020030B107F0010018B1E06B40F036
:103680000400E06305F0080048B106F0200010B91E
:1036900007F0010018B1E06B40F00800E063E06B58
:1036A00070B305F0200028B106F0200010B12046CC
:1036B00001F088FB20684069C0F38019E06B00F0DE
:1036C000080010B9B9F1000F23D0204601F050FBDB
:1036D0002068406900F04000402816D12068406909
:1036E00020F0400021684861606B50B11748616B61
:1036F0000865606BFEF775FC10B1606B016D884763
:103700000CE02046FFF779FF08E02046FFF775FF41
:1037100004E02046FFF771FF0020E06388E7FFE741
:1037200005F0800030B106F0800018B1204601F0AD
:1037300091FD7DE705F0400030B106F0400018B182
:10374000204601F025FB73E700BF71E7C94C000874
:1037500010B504460CB9012010BDA06900B100E00D
:1037600000BF94F8390028B9002084F838002046BA
:1037700000F028F8242084F839002068C06820F47C
:1037800000502168C860204601F070FB2068006985
:1037900020F49040216808612068406920F02A00E8
:1037A000216848612068C06840F400502168C86002
:1037B0000020E063202084F8390084F83A000020DB
:1037C000CAE7000010B586B00446142101A8FCF732
:1037D000B3FD9E492068884258D100BF0020009068
:1037E0009B48006840F0004099490860084600681E
:1037F00000F00040009000BF00BF00BF002000901C
:1038000093481038006840F0100091491039086062
:103810000846006800F01000009000BF00BF0320C1
:1038200001900220029001200390032004900820C0
:10383000059001A98748FEF70FFE87488749086071
:1038400000054860002185488160C1604FF48061B7
:1038500001610021416181614FF48071C161090200
:10386000016200214162FEF7F1FC08B1FDF7BDFCE9
:1038700000BF7A486063846300BF002207215320A1
:10388000FEF7A2FF5320FEF78FFFDCE074492068AB
:1038900088425BD100BF002000906D48001D006889
:1038A00040F010006A49091D08600846006800F0F1
:1038B0001000009000BF00BF00BF002000906448CF
:1038C0001038006840F0020061491039086008466D
:1038D000006800F00200009000BF00BFC02001900F
:1038E00002200290002003900320049007200590FE
:1038F00001A95C48FEF7B0FD5B485C4908604FF0E9
:1039000000604860002159488160C1604FF48061C7
:1039100001610021416181614FF48071C1614902FF
:10392000016200214162FEF791FC08B1FDF75DFCE8
:1039300000BF4E486063846300BF0022072125203A
:10394000FEF742FF2520FEF72FFF7CE04849206864
:10395000884278D100BF002000903D48001D0068DB
:1039600040F020003A49091D08600846006800F050
:103970002000009000BF00BF00BF0020009034482E
:103980001038006840F004003149103908600846DA
:10399000006800F00400009000BF00BFC02001904C
:1039A000022002900020039003200490082005903C
:1039B00001A93048FEF750FD2B4818382E49086001
:1039C0008005486000212C488160C1604FF480610F
:1039D0000161002141618161C1614FF440310162A7
:1039E00000214162FEF732FC08B1FDF7FEFB00BF8B
:1039F00021486063846300BF1B4860301F49086032
:103A00004FF02060486040211C4881600021C16067
:103A10004FF480610161002141618161C1610162F6
:103A20004162FEF713FC08B1FDF7DFFB00BF13484E
:103A30002063846300BF002206214720FEF7C4FEF6
:103A40004720FEF7B1FE06B010BD0000007C00402C
:103A50004038024000100240A06002407808002078
:103A6000001001400004024040640240D8080020D9
:103A70000014014000080240380900209809002085
:103A800070470000F7B50446154694F83900202821
:103A90003DD1019800B10DB90120FEBD00BF94F8E1
:103AA0003800012801D10220F7E7012084F838000E
:103AB00000BF01982062A584E5840020E0632120F6
:103AC00084F839001348216BC8631348216B0864DC
:103AD0001248216BC8640020216B086501AE236881
:103AE0001A1D31682B46206BFEF759FC6FF0400021
:103AF0002168086000BF002084F8380000BF2068FB
:103B0000406940F08000216848610020C5E702203C
:103B1000C3E700002D4D0008634D0008DD4C000890
:103B20007047704700BFFEE710B52DED088BB0EE73
:103B3000408AF0EE608A002418EE900AFCF7F5FD4A
:103B400041EC190B18EE100AFCF7EFFD41EC1B0BD2
:103B5000B0EE4B0AF0EE6B0A01F03CFEB0EE40AA6C
:103B6000F0EE60AA53EC192B51EC1A0BFCF7F0FDA8
:103B700000D801242046BDEC088B10BD80ED000A62
:103B8000C0ED010A80ED021ADFED225AC0ED035AA2
:103B9000DFED205AC0ED045AD0ED035A90ED046ACF
:103BA00075EEC65AC0ED055AC0ED061A80ED072A1B
:103BB000C0ED082ADFED175AC0ED095ADFED155A9E
:103BC000C0ED0A5ADFED135AC0ED0B5A80ED0C3AE6
:103BD000DFED105AC0ED0D5AC0ED0F3A80ED104ADE
:103BE000DFED0C5AC0ED115ADFED0A5AC0ED125A42
:103BF000C0ED134A80ED145AD0ED055AC0ED155AA8
:103C0000D0ED155AC0ED165ADFED025AC0ED0E5A2E
:103C1000704700000000000070B52DED028B0446D7
:103C2000B0EE408AF0EE608A84ED038AC4ED048A27
:103C300094ED030AD4ED040A30EE600A84ED050A1F
:103C400094ED050AD4ED150A30EE600A84ED090AF8
:103C500094ED050AD4ED150AB0EE001A01EE600AE3
:103C6000D4ED160A30EE200A84ED0B0A94ED020A18
:103C7000D4ED0C0AB7EE001A71EE600A20EE200AAD
:103C8000D4ED0B0A20EE200AD4ED0C0A94ED0E1AA6
:103C900000EE810A84ED0D0A94ED061AF0EE410A59
:103CA00094ED051AB0EE410AFFF73EFF054675B9DF
:103CB00094ED000AD4ED090A20EE200AD4ED020AA0
:103CC00094ED0B1A00EE810A84ED110A59E094ED8F
:103CD000120AD4ED0F0AB4EEE00AF1EE10FA13DD89
:103CE00094ED050AB5EEC00AF1EE10FA35D894ED60
:103CF000050AD4ED150A30EE200AF0EE000A80EE37
:103D0000201A84ED0A1A28E094ED120AD4ED100A64
:103D1000B4EEE00AF1EE10FA13D294ED050AB5EE16
:103D2000C00AF1EE10FA18DB94ED050AD4ED150A7D
:103D300030EE200AF0EE000A80EE201A84ED0A1A16
:103D40000BE094ED050AD4ED150A30EE200AF0EEF2
:103D5000000A80EE201A84ED0A1A94ED000AD4EDD0
:103D6000090A20EE200AD4ED010A94ED0A1A00EEA9
:103D7000810AD4ED020A94ED0B1A00EE810A84ED5B
:103D8000110A94ED120AD4ED110A30EE200A84EDE6
:103D9000120A94ED120AD4ED130AB4EEE00AF1EE21
:103DA00010FA04DD94ED130A84ED120A0CE094ED90
:103DB000120AD4ED140AB4EEE00AF1EE10FA03D2BE
:103DC00094ED140A84ED120A94ED150A84ED160A96
:103DD00094ED050A84ED150A94ED0D0A84ED0E0AA2
:103DE00094ED120ABDEC028B70BD00000FB440F2DE
:103DF00003220099914201D004B070470099A1F2CA
:103E000001209DF81D109DF81C2041EA022100EBC5
:103E10004012454B23F822109DF81F209DF81E10DC
:103E200042EA012109B200EB401203EB82029180C9
:103E30009DF821209DF8201042EA012100EE101A81
:103E4000B8EEC00AF1EE040A20EE200ADFED370AD0
:103E500080EE201ABDEEC10A10EE101A09B200EB76
:103E6000401203EB8202D18000EB40111A4632F877
:103E7000211000EB401203EB82025288891AB1F53F
:103E8000805F0FDD00EB40111A4602EB8101B1F8B3
:103E90007810491E09B200EB401203EB8202A2F82F
:103EA00078101DE000EB40111F4A32F8211000EBA2
:103EB00040121D4B03EB82025288891A11F5805F74
:103EC0000EDA00EB40111A4602EB8101B1F87810CE
:103ED000491C09B200EB401203EB8202A2F87810F1
:103EE00000EB4011104A32F8212000EB40110E4B3C
:103EF00003EB8101B1F9781002EB413100EE101AA9
:103F0000B8EEC00A00EB40111A4602EB810181EDC8
:103F10001F0A00EB401132F8211000EB401203EBB6
:103F20008202518000BF67E7884800200000804679
:103F30000FB40099B1F5017F01D004B0704700992A
:103F4000A1F201209DF81D109DF81C2041EA0221DC
:103F500000EB4012404B23F822109DF81F209DF8E3
:103F60001E1042EA012109B200EB401203EB82026B
:103F700091809DF821209DF8201042EA012109B28C
:103F800000EB401203EB8202D1809DF8221000EB7F
:103F9000401203EB8202117200EB40111A4632F814
:103FA000211000EB401203EB82025288891AB1F50E
:103FB000805F0FDD00EB40111A4602EB8101B1F882
:103FC0007810491E09B200EB401203EB8202A2F8FE
:103FD00078101DE000EB40111F4A32F8211000EB71
:103FE00040121D4B03EB82025288891A11F5805F43
:103FF0000EDA00EB40111A4602EB8101B1F878109D
:10400000491C09B200EB401203EB8202A2F87810BF
:1040100000EB4011104A32F8212000EB40110E4B0A
:1040200003EB8101B1F9781002EB413100EE101A77
:10403000B8EEC00A00EB40111A4602EB810181ED97
:104040001F0A00EB401132F8211000EB401203EB85
:104050008202518000BF70E7884800200FB40099A9
:10406000B1F5007F03D90099B1F5017F01D904B002
:1040700070470099A1F201209DF81D109DF81C20A9
:1040800041EA022100EB4012114B23F822109DF867
:104090001F209DF81E1042EA012109B200EB4012D8
:1040A00003EB820291809DF821209DF8201042EAC6
:1040B000012109B200EB401203EB8202D1809DF88E
:1040C000221000EB401203EB8202117200BFCEE718
:1040D000884800202DE9FC4107460C4615461E463F
:1040E000380A8DF80000F8B28DF80100200A8DF82A
:1040F0000200E0B28DF80300280A8DF80400E8B24F
:104100008DF80500300A8DF80600F0B28DF8070032
:104110006B464FF4007200210248FCF747FDBDE8F2
:10412000FC8100009806002010B50E480E4908607A
:104130000720486000210C488160C1604FF40031C5
:104140000161C9004161002101760121417681763A
:10415000C176002101774177FDF74DFD08B1FDF7EC
:1041600044F810BD006400409806002010B50E48C9
:104170000E4908600720486000210C488160C1603A
:104180004FF400310161C900416100210176012134
:1041900041768176C176002101774177FDF72BFDCD
:1041A00008B1FDF722F810BD00680040C0060020ED
:1041B00008B500BF002000901E48006840F4800051
:1041C0001C4908600846006800F48000009000BFA9
:1041D00000BF00BF002000900846006840F40010B7
:1041E00008600846006800F40010009000BF00BF9F
:1041F000002211461120FEF7E7FA1120FEF7D4FA4B
:10420000002211463920FEF7DFFA3920FEF7CCFAFA
:10421000002211463A20FEF7D7FA3A20FEF7C4FAF8
:10422000002211464520FEF7CFFA4520FEF7BCFAE2
:1042300008BD00003038024000B5A3B000222421A0
:10424000202003F0DBF923490860002224212020EC
:1042500003F0D4F9204908601C2220491CA8FCF76F
:1042600052F800211CA801F099FF1D4908601C228A
:104270001A491C3115A8FCF746F8002115A801F0D1
:104280008DFF184908601C22144938310EA8FCF72C
:104290003AF800210EA801F081FF134908601C22A2
:1042A0000E49543107A8FCF72EF8002107A801F0A9
:1042B00075FF0E4908601C22084970316846FCF7FA
:1042C00022F80021684601F069FF0949086023B01F
:1042D00000BD0000B8000020BC000020D87E00080F
:1042E000C4000020C8000020CC000020D000002026
:1042F000D400002000B587B0142102A8FCF71CF8F8
:1043000000BF002001903248006840F08000304932
:1043100008600846006800F08000019000BF00BF00
:1043200000BF002001900846006840F001000860CE
:104330000846006800F00100019000BF00BF00BF08
:10434000002001900846006840F00200086008461E
:10435000006800F00200019000BF00BF00BF002015
:1043600001900846006840F00400086008460068B4
:1043700000F00400019000BF00BF00BF00200190CA
:104380000846006840F0080008600846006800F031
:104390000800019000BF00BF00BF00200190084648
:1043A000006840F0100008600846006800F0100047
:1043B000019000BF00BF4FF44070029000200390B6
:1043C000049002A90348FEF747F807B000BD0000BB
:1043D000303802400000024010B505480549086029
:1043E0000846FEF7E9FD08B1FCF7FFFE10BD00002E
:1043F00000080650E806002000B587B000200390B2
:1044000004900590069001900290144814490860A9
:10441000532048600021124881603121C160002191
:10442000016180218161FEF757FE08B1FCF7DDFED6
:104430004FF48050039003A90948FEF7BEFE08B16F
:10444000FCF7D3FE00200190029001A90448FEF77A
:10445000E9FD08B1FCF7C9FE07B000BD000400404B
:10446000F806002000B58BB0242102A8FBF764FFFA
:10447000002000900190184818490860002048600A
:1044800000211648816040F69F71C16000210161E2
:1044900081610320029000200390012004900020FD
:1044A00005900690079001200890002009900A903E
:1044B00002A90A48FEF705FF08B1FCF796FE0020A6
:1044C0000090019069460548FEF7ACFD08B1FCF785
:1044D0008CFE0BB000BD0000000C0040380700202F
:1044E0001CB50020009001900E480F490860532031
:1044F000486000210C48816040F2E731C1608021B2
:104500008161FEF7E9FD08B1FCF76FFE0020009025
:10451000019069460448FEF785FD08B1FCF765FE89
:104520001CBD0000001400407807002010B50B48A7
:104530000B4908604FF46120486000210848816001
:10454000C16001610C21416100218161C161FFF7FE
:10455000FFF808B1FCF749FE10BD0000007C0040E8
:10456000B807002010B50A480A4908600A484860A0
:10457000002108488160C16001610C214161002176
:104580008161C161FFF7E4F808B1FCF72EFE10BDB0
:1045900000100140F8070020A086010010B50B486C
:1045A0000B4908604FF4E130486000210848816001
:1045B000C16001610C21416100218161C161FFF78E
:1045C000C7F808B1FCF711FE10BD0000001401404F
:1045D0003808002000BFFEE77047000010B51448FF
:1045E00090ED070AF0EE400A124890ED000A1248DA
:1045F00000F080F8104890ED110ABDEEC00A0F4897
:1046000080ED000A0A4890ED090AF0EE400A0B48D6
:1046100090ED000AB8EEC00A094800F06BF80848AF
:1046200090ED110ABDEEC00A064880ED000A10BDEB
:104630006450002038000020604C00203C00002026
:10464000C04C0020580000200020B5EEC00AF1EE5A
:1046500010FA02DDB0EE401A01E0B1EE401AB4EEFD
:10466000E01AF1EE10FA00D80120704780ED000A40
:10467000C0ED010A80ED021A9FED1D4A80ED034A4C
:104680009FED1B4A80ED044A90ED034AD0ED044AA9
:1046900034EE644A80ED054AC0ED061A9FED144AD7
:1046A00080ED094A9FED124A80ED0A4A9FED104ABB
:1046B00080ED0B4A9FED0E4A80ED0D4A80ED0F2AEA
:1046C000C0ED102A9FED0A4A80ED114A80ED123AA2
:1046D000C0ED133A90ED054A80ED144A90ED144A6E
:1046E00080ED154A9FED024A80ED0E4A70470000AA
:1046F0000000000070B52DED028B0446B0EE408A3C
:10470000F0EE608A84ED038AC4ED048A38EE680A0C
:1047100084ED050A94ED000AD4ED050A20EE200A86
:1047200084ED090A94ED050AD4ED140A30EE600A0E
:1047300084ED0B0A94ED050AD4ED140A30EE600AFC
:10474000D4ED020A20EE200A84ED0D0A94ED061A3B
:10475000F0EE410A94ED051AB0EE410AFFF774FF3E
:10476000054643480560012D4ED194ED0A0AD4ED6B
:104770000F0AB4EEE00AF1EE10FA0FDD94ED050A2F
:10478000B5EEC00AF1EE10FA29D894ED0A0AD4ED7C
:10479000050A30EE200A84ED0A0A20E094ED0A0AA8
:1047A000D4ED100AB4EEE00AF1EE10FA0FD294ED57
:1047B000050AB5EEC00AF1EE10FA10DB94ED0A0A14
:1047C000D4ED050A30EE200A84ED0A0A07E094EDE4
:1047D0000A0AD4ED050A30EE200A84ED0A0A94EDA7
:1047E000010AD4ED0A0A20EE200A84ED170A94ED9E
:1047F000090AD4ED170A30EE200AD4ED0D0A30EE86
:10480000200A84ED110A07E094ED090AD4ED0D0A9F
:1048100030EE200A84ED110A94ED110AD4ED120A4B
:10482000B4EEE00AF1EE10FA04DD94ED120A84ED24
:10483000110A0CE094ED110AD4ED130AB4EEE00A6B
:10484000F1EE10FA03D294ED130A84ED110A94EDFF
:10485000140A84ED150A94ED050A84ED140A94ED0A
:104860000D0A84ED0E0A94ED110ABDEC028B70BDA9
:104870002002002008B503F053F9009000BF00BFEC
:1048800039480068401C3849086001F09FF83748F3
:1048900090ED0F0ADFED360AB4EEE00AF1EE10FA01
:1048A00006D834480068002802DA00203149086040
:1048B0002E4890ED0F0ADFED300AB4EEE00AF1EE7B
:1048C00010FA06DB2B480068002802DD0020294989
:1048D00008602A48007A022802D02848007A50B995
:1048E00000202749086023490860264890ED030A04
:1048F000254880ED000A00231A461E48008801B2B0
:104900001F48008800B2FCF747FD20492048FCF70B
:104910001DFE02F0F3F8FCF77DF902F077F801F0E4
:1049200001F91648007A022802D01448007A40B9EA
:10493000002018490860184908601849086018499B
:1049400008601448008803B21548008802B2124873
:10495000008801B21148008800B2FFF7BBFB0321B9
:10496000684602F019FB8BE724000020F84700207E
:1049700000F0C8455800002000D0DE455801002056
:1049800054000020645000202C0000203807002034
:10499000340200205C000020600000206400002041
:1049A0006800002000BF012001F0E7FBFBE70000EA
:1049B00010B500BF502080F31188BFF34F8FBFF3B5
:1049C0006F8F00BF03F0B2F818B14FF08050044968
:1049D000086000BF002080F3118800BF10BD0000F8
:1049E00004ED00E000B593B0302107A8FBF7A4FC6C
:1049F000142102A8FBF7A0FC00BF0020019024486E
:104A0000006840F08050224908600846006800F0C5
:104A10008050019000BF00BF00BF002001901D48E2
:104A2000006840F440401B4908600846006800F4F4
:104A30004040019000BF00BF012007900004089093
:104A400002200D9041050E9106210F91A821109191
:104A5000022111910721129107A8FEF769F808B108
:104A6000FCF7C3FB0F20029002200390002004906B
:104A70004FF4A05005904FF480500690052102A8F5
:104A8000FDF7F4FE08B1FCF7B0FB13B000BD000069
:104A900040380240007000400548006840F4700053
:104AA000034908604FF00060014980390860704791
:104AB00088ED00E010B509480068401C074908600F
:104AC000074802684068521C40F1000004490A602F
:104AD00048600448FEF7B6FC10BD0000B40000209A
:104AE00018020020F806002010B50248FEF7AAFCC4
:104AF00010BD0000400A002010B50A480068401CA4
:104B000008490860084600684FF47A71B0FBF1F07C
:104B100005490968B1FBF0F0044908600448FEF754
:104B200091FC10BD1000002024000020280000206F
:104B30007807002010B50268294B98420ED0B0F1DA
:104B4000804F0BD0274B984208D0274B984205D076
:104B5000264B984202D0264B984203D122F0700295
:104B60004B681A431E4B984220D0B0F1804F1DD0A5
:104B70001C4B98421AD01C4B984217D01B4B9842A2
:104B800014D01B4B984211D01A4B98420ED01A4B9E
:104B900098420BD0194B984208D0194B984205D037
:104BA000184B984202D0184B984203D122F440721D
:104BB000CB681A4322F080034C6943EA0402026086
:104BC0008B68C3620B688362054B984202D0084B26
:104BD000984201D10B6903630123436110BD0000BA
:104BE000000001400004004000080040000C0040AC
:104BF00000040140004001400044014000480140E1
:104C000000180040001C00400020004030B501F0BA
:104C10001F05012404FA05F3046A9C430462046A34
:104C200001F01F0502FA05F52C43046230BD30B5D2
:104C30000C46816821F47F4142EA0325254329433C
:104C4000816030BD0A46816821F0700142F007039F
:104C500019438160704730B50B461446026A056AF5
:104C600025F001050562816921F0F00141EA041196
:104C700022F00A021A438161026230BD30B50B4650
:104C80001446056A25F0100505628169026A21F45F
:104C9000704141EA043122F0A00242EA031281612C
:104CA000026230BD10B506480068401C0449086027
:104CB000044800F08DFC0348FEF7A0FC10BD000086
:104CC000B0000020B807002070B50546AC6B00208E
:104CD000E085E0842046FEF790FC70BD70B5064686
:104CE0000025B46B20684069C0F3C01594F8390002
:104CF000212805D125B10020E084204600F058F895
:104D000020684069C0F3801594F83A00222805D144
:104D100025B10020E085204600F02AF8E06B40F045
:104D20001000E0632046FEF768FC70BD70B50546D4
:104D3000AC6B2868006800F4807070B90020E084D3
:104D40002068406920F08000216848612068C068C0
:104D500040F040002168C86002E02046FEF7E0FE17
:104D600070BD70B50446A56B2846FEF7DAFE70BD2F
:104D70000168C96821F490710268D16001684969CD
:104D800021F0010102685161202180F83A1070473A
:104D900010B504462068C06820F040002168C86053
:104DA000202084F839002046FEF7BAFE002010BD0E
:104DB0000168C96821F0C0010268D160202180F833
:104DC0003910704770B5044694F83A0022284AD149
:104DD000A068B0F5805F13D1A56A206940B920684A
:104DE0004068C0F308002880A06A801CA06219E017
:104DF00020684068C0B22880A06A401CA06211E010
:104E0000206938B920684068C1B2A26A501CA0620B
:104E1000117007E02068406800F07F01A26A501C12
:104E2000A0621170E08D401E80B2E085C8B9206894
:104E3000C06820F020002168C8602068C06820F4A5
:104E400080702168C8602068406920F001002168F6
:104E50004861202084F83A002046FEF711FE002029
:104E600070BD0020FCE70220FAE700002DE9F84FB2
:104E700004462068006920F44050E1680843216836
:104E800008612169A068084361690843E169084332
:104E900000902068C06849F20C618843009908437B
:104EA0002168C8602068406920F44070A169084307
:104EB00021684861E069B0F5004F75D1E349206889
:104EC000884203D0E249206888426FD1FDF7C8FDCF
:104ED000814602206168A0FB01510B461920A9FB05
:104EE00000712A463846FBF7DDF96421B0FBF1F08A
:104EF0004FEA001A02206168A0FB01510B461920FD
:104F0000A9FB00712A463846FBF7CCF90746022078
:104F10006168A0FB01510B461920A9FB00B12A468C
:104F20005846FBF7BFF96421B0FBF1F000EBC0017C
:104F300001EB0010A7EB8000322101EBC0006421DF
:104F4000B0FBF1F000F0F8000AEB400A02206168C3
:104F5000A0FB01510B461920A9FB00712A463846D7
:104F6000FBF7A0F9074602206168A0FB01510B4640
:104F70001920A9FB00B12A465846FBF793F9642192
:104F8000B0FBF1F000EBC00101EB0010A7EB8000DB
:104F9000322101EBC0006421B0FBF1F000F007000A
:104FA0005044216888604FE16EE0FFE7FDF748FD5F
:104FB000814602206168A0FB01510B461920A9FB24
:104FC00000712A463846FBF76DF96421B0FBF1F019
:104FD0004FEA001A02206168A0FB01510B4619201C
:104FE000A9FB00712A463846FBF75CF90746022008
:104FF0006168A0FB01510B461920A9FB00B12A46AC
:105000005846FBF74FF96421B0FBF1F000EBC0010B
:1050100001EB0010A7EB8000322101EBC0006421FE
:10502000B0FBF1F000F0F8000AEB400A02206168E2
:10503000A0FB01510B461920A9FB00712A463846F6
:10504000FBF730F9074602206168A0FB01500346D8
:105050001920A9FB00B12A465846FBF723F9642121
:10506000B0FBF1F000EBC00101EB0010A7EB8000FA
:10507000322101EBC0006421B0FBF1F000F0070029
:10508000504421688860DFE070492068884203D07E
:105090006F49206888426BD1FDF7E2FC814604200D
:1050A0006168A0FB01510B461920A9FB00712A463B
:1050B0003846FBF7F7F8824604206168A0FB0151EF
:1050C0000B461920A9FB00712A463846FBF7EAF87F
:1050D0006421B0FBF1F000EBC00101EB0010AAEB82
:1050E0008000322101EB00106421B0FBF1F000F0F0
:1050F000F00A04206168A0FB015003461920A9FBB7
:1051000000712A463846FBF7CDF86421B0FBF1F078
:105110000AEB001A04206168A0FB01510B4619201C
:10512000A9FB00712A463846FBF7BCF80746042065
:105130006168A0FB015003461920A9FB00B12A4673
:105140005846FBF7AFF86421B0FBF1F000EBC0016B
:1051500001EB0010A7EB8000322101EB001064216D
:10516000B0FBF1F000F00F005044216888606BE064
:10517000FDF766FC814604206168A0FB01500346F0
:105180001920A9FB00712A463846FBF78BF88246A6
:1051900004206168A0FB015003461920A9FB00719F
:1051A0002A463846FBF77EF86421B0FBF1F000EBAD
:1051B000C00101EB0010AAEB8000322101EB0010CE
:1051C0006421B0FBF1F000F0F00A04206168A0FB5C
:1051D000015003461920A9FB00712A463846FBF707
:1051E00061F86421B0FBF1F00AEB001A0420616859
:1051F000A0FB017003461920A9FB005001463A4666
:105200002846FBF74FF8074604206168A0FB0150D1
:1052100003461920A9FB00B12A465846FBF742F87D
:105220006421B0FBF1F000EBC00101EB0010A7EB33
:105230008000322101EB00106421B0FBF1F000F09E
:105240000F00504421688860BDE8F88F00100140CD
:1052500000140140014691F8390021282CD18868BA
:10526000B0F5805F0FD10A6A1088C0F308000B68A0
:105270005860086918B9086A801C086209E0086A61
:10528000401C086205E00B6A581C086218780B681D
:105290005860C88C401E80B2C88458B90868C0687D
:1052A00020F080000B68D8600868C06840F04000BB
:1052B0000B68D860002070470220FCE710B5034857
:1052C000FBF738FF0148FEF799F910BDF8070020F9
:1052D00010B50248FEF792F910BD00003808002012
:1052E00070B504460D46164694F83A00202815D1AC
:1052F00005B10EB9012070BDA562A6850020E0634E
:105300002268111D33462A46606BFDF715F82068A8
:10531000406940F040002168486101E00220EAE76E
:105320000020E8E770B504460D46164694F83A00AA
:10533000202815D105B10EB9012070BDA562A68542
:105340000020E0632268111D33462A46606BFCF79B
:10535000F3FF2068406940F040002168486101E0A7
:105360000220EAE70020E8E74F48D0ED000A9FED71
:105370004F1A9FED4F0A00EE810A4E4880ED000A59
:105380004948D0ED010A9FED491A9FED490A00EE08
:10539000810A484880ED040A474890ED000ADFED95
:1053A000430A20EE200A434880ED080A424890ED67
:1053B000010ADFED3E0A20EE200A3E4880ED090A90
:1053C00090ED000AD0ED010A30EE600ADFED3B0AF5
:1053D000B4EEE00AF1EE10FA03D28068401C3549C1
:1053E0008860344890ED010AD0ED000A30EE600A82
:1053F000DFED320AB4EEE00AF1EE10FA03D2806873
:10540000401E2C4988602B4890ED000AD0ED020A1E
:10541000F8EEE00A9FED2A1A00EE810A80ED030AF9
:1054200090ED000A80ED010A90ED040AD0ED050A26
:1054300030EE600ADFED210AB4EEE00AF1EE10FA78
:1054400003D28069401C1B4988611A4890ED050A07
:10545000D0ED040A30EE600ADFED180AB4EEE00A7F
:10546000F1EE10FA03D28069401E1249886111489A
:1054700090ED040AD0ED060AF8EEE00A9FED101A4E
:1054800000EE810A80ED070A90ED040A80ED050A1E
:1054900090ED030A0B4880ED000A064890ED070ADC
:1054A000084880ED010A704724020020E12E654281
:1054B00000003443645000202C020020000096C3FA
:1054C0000000B443D04A002000BFFEE770B5044698
:1054D0000B212046FBF75CFC0546002004E0215C24
:1054E000384A1154411CC8B20D28F8DB0120364956
:1054F0000870344800793349497940EA012000EEC8
:10550000100AB8EEC00A2F4880ED040AC0792D4970
:10551000097A40EA012000EE100AB8EEC00A2948D4
:1055200080ED050A407A2749897A40EA012000EE99
:10553000100AB8EEC00A234880ED060AC07840B9C8
:10554000204890ED040AFFEE000A20EE200A80EDCC
:10555000040A1C48807940B91A4890ED050AFFEE0C
:10556000000A20EE200A80ED050A01201649487045
:105570001448C07AA84207D112480078532803D1B2
:105580001048007B452807D000200F498870012073
:105590000C4981F8200070BD01200B498870094931
:1055A00081F82100002081F820000849A1F10800BD
:1055B000FBF7EFFF0348C069401C0249C86100BF08
:1055C000E9E70000A84A0020B6010020185000209A
:1055D00038B504462068006800F0100010282BD170
:1055E0002068C06800F0100030B300BF00200090B9
:1055F00020680068009020684068009000BF00BFED
:10560000606B0068006820F00100616B0968086049
:10561000606B00684068022802D10848FFF756FF17
:105620000F20616B09684860606B0068006840F09B
:105630000100616B0968086038BD0000984A0020CD
:1056400010B54148407A022824D1404890ED030A21
:10565000F0EE400A3E4890ED000A3E48FFF74AF857
:105660003C4890ED110A3C4880ED000A374890ED27
:10567000080AF0EE400A384890ED000A3748FFF774
:1056800039F8364890ED110ABDEEC00A344880ED75
:10569000000A58E033488068142830D932484078EE
:1056A00001282CD1294890ED030A294880ED000AF1
:1056B000264890ED031AF0EE410A2B4890ED041AAB
:1056C000B0EE410A2948FFF715F8284890ED110A75
:1056D000214880ED000A1D4890ED080AF0EE400ACE
:1056E0001D4890ED000A2248FFF704F8204890ED8D
:1056F000110ABDEEC00A1A4880ED000A23E01348E3
:1057000090ED030AF0EE400A114890ED000A1148AE
:10571000FEF7F0FF0F4890ED110A0F4880ED000AE8
:105720000A4890ED080AF0EE400A0B4890ED000A96
:105730000A48FEF7DFFF094890ED110ABDEEC00AE6
:10574000074880ED000A10BD580100206450002079
:105750002C000020E04A002034000020404B0020B4
:105760005400002010500020A84A0020A04B002028
:10577000004C00200FB4084B10B504A902AA0398EE
:1057800000F042F8044602A9002000F019F9204672
:1057900010BC5DF814FB0000C15900080248006805
:1057A000C0F30220704700000CED00E010B50028A7
:1057B00004DB0A07130E054A135406E00A07140E09
:1057C000034A00F00F031B1FD45410BD00E400E097
:1057D00018ED00E02DED020B019820F00040019043
:1057E0009DED000B02B0704702E008C8121F08C10F
:1057F000002AFAD170477047002001E001C1121F52
:10580000002AFBD1704700002DE9FF4F8BB09A466C
:105810000F460546002606E025280BD052460D9976
:1058200090476D1C761C28780028F5D10FB03046C3
:10583000BDE8F08F0024A0460122604900E0044347
:1058400015F8013F203B02FA03F00842F7D128780F
:105850002E2817D115F8010F44F004042A280ED081
:105860006FF02F022878A0F1300109290AD808EB3F
:10587000880102EB410100EB01086D1CF2E757F8CB
:10588000048B6D1C287869283ED006DC0028CDD01A
:1058900063280BD0642804D136E0732810D0752813
:1058A0004BD052460D999047761C85E017F8040BB3
:1058B0008DF8000000208DF80100E946012003E08A
:1058C00057F8049B4FF0FF3061074FF0000401D4FC
:1058D0000AE0641C44450DDA8442FADB19F804102E
:1058E0000029F6D106E0641C8442FCDB19F80410A0
:1058F0000029F8D1264404E019F8010B52460D990D
:105900009047641EF8D257E001CF4FF00A0B0028F1
:1059100002DA40422D2102E0210504D52B218DF829
:105920002410012103E0E10705D02021F7E70DF164
:10593000200908910CE00021F9E701CF4FF00A0B94
:10594000F9E75946FAF738FF01F1300209F8012D5D
:105950000028F6D1ADEB090000F1200B600701D45F
:105960004FF00108D84502DDA8EB0B0000E0002055
:105970008046002406E009A85246005D0D99904734
:10598000641C761C08988442F5DB04E03020524603
:105990000D999047761CB8F10001A8F10108F5DCDB
:1059A00005E019F8010B52460D999047761CBBF1A2
:1059B0000001ABF1010BF4DC6D1C34E70928010098
:1059C0000A68531C0B6010707047000010B52DED75
:1059D0000A8B4948007A01284DD14749B1F90000A6
:1059E000FAF74DFE41EC1C0B9FED440B53EC102BD2
:1059F000FAF7D6FD41EC1B0B9FED420B53EC102B3D
:105A0000FAF7CEFD41EC190B40480068FAF78DFE1D
:105A100041EC1A0B53EC192BFAF7A9FC41EC180BCB
:105A2000FAF7AEFE394908603349B1F90200FAF7D6
:105A300026FE41EC1C0B9FED310B53EC102BFAF7BB
:105A4000AFFD41EC190B9FED320B53EC102BFAF725
:105A5000A7FD41EC180B30480068FAF766FE41ECF0
:105A60001B0B53EC182BFAF782FC41EC1A0BFAF7DC
:105A700087FE29490860FFF7E3FD00F0D1F82648CA
:105A800090ED000A2548D0ED000AB4EEE00AF1EEF0
:105A900010FA0ADC204890ED000A2048D0ED000AF8
:105AA000B4EE600AF1EE10FA05D11C4890ED000A40
:105AB000194880ED000A184890ED000A1848D0ED0A
:105AC000000AB4EEE00AF1EE10FA0AD3124890EDA3
:105AD000000A1348D0ED000AB4EE600AF1EE10FAA5
